S123000000040020810A000015070000610A00001F07000029070000330700000000000016
S1230020000000000000000000000000A50A00003D07000000000000470700005107000023
S12300405B070000650700006F07000079070000830700008D07000097070000A107000074
S1230060AB070000B5070000BF070000C9070000D3070000DD070000E7070000F1070000D4
S1230080FB070000050800000F08000019080000230800002D08000037080000410800002D
S12300A04B080000550800005F08000069080000730800007D08000087080000910800008C
S12300C09B080000A5080000AF080000B9080000C3080000CD080000D7080000E1080000EC
S12300E0EB080000F5080000FF08000009090000130900001D090000270900003109000047
S12301003B0900001FB500F003F88DE80F001FBD00F0ACBC40F6FC7108684FF01022401C40
S123012008D00868401C09D00868401C04D0086800F037BA9069F5E79069F9E7704770B5C3
S12301400B46010B184400F6FF70040B4FF080500022090303692403406943431D1B1046E1
S123016000F048FA29462046BDE8704000F042BAF0B54FF6FF734FF4B4751A466E1E11E08E
S1230180A94201D3344600E00C46091B30F8027B641E3B441A44F9D19CB204EB134394B225
S12301A004EB12420029EBD198B200EB134002EB124140EA0140F0BDF34992B00446D1E9B1
S12301C00001CDE91001FF224021684600F0F4FB94E80F008DE80F00684610A902E004C820
S12301E041F8042D8842FAD110216846FFF7C0FF1090AA208DF8440000F099F9FFF78AFF34
S123020040F6FC7420684FF01025401C0FD0206810226946803000F078F92068401C08D0C7
S12302202068082210A900F070F900F061F9A869EEE7A869F5E74FF080500369406940F67F
S1230240FC71434308684FF01022401C06D0086800F58050834203D2092070479069F7E70E
S12302600868401C04D00868401C03D0002070479069F9E70420704770B504460068C34DC9
S1230280072876D2DFE800F033041929631E2500D4E9026564682946304600F062F92A467D
S12302A02146304600F031F9AA002146304600F057FB002800D0032070BD00F009FC4FF4FA
S12302C0805007E0201D00F040F90028F4D100F0FFFB60682860002070BD241D94E80700C5
S12302E0920000F03DFB0028F6D00E2070BDFFF7A2FF0028FAD1D4E901034FF0805100EBB1
S1230300830208694D69684382420ED840F6F87005684FF010226D1C09D0056805EB830515
S12303200B6949694B439D4203D9092070BD5569F4E70168491C03D00068401C02D003E041
S12303405069FAE70F2070BD2046FFF735FFFFF772FF0028F7D1201D00F0F7F80028F2D1B5
S123036060680028F0D100F0E2F8FFF7D3FE00F0BFF8072070BD10B50C46182802D00120F2
S1230380086010BD2068FFF777FF206010BD4168054609B1012700E0002740F6F8742068DC
S12303A04FF01026401C2BD02068AA68920000F0D7FA38B3A86881002068401C27D02068A1
S12303C0FFF7BDFED7B12068401C22D026684FF08050AC686D68016942695143A9420DD90A
S12303E0016940694143A14208D92146304600F0B8F822462946304600F087F800F078F805
S12304007069D2E700F093F8FFF784FEF6E77069D6E77669DBE740F6FC7420684FF010269C
S1230420401C23D02068401C0CD02068401C1FD02568206805F18005401C1BD027683879BF
S1230440AA2819D040F6F8700168491C42D00168491C45D00168491C3ED001680968491C61
S12304603ED00168491C39D000683EE0B069DAE7B569DEE7B769E2E710212846FFF778FE5C
S12304803968814222D12068401C05D0D4F8001001F18002C03107E0B169F9E730B108CA73
S12304A051F8040D984201D1012000E000208A42F4D158B1286810B1042803D0FEE72846D4
S12304C0FFF765FF3149686808600EE0FFF722FE00F00EF87169BBE77169BFE7706904E059
S12304E04FF480500168491C01D000F0CBFAFEE7BFF34F8F26480168264A01F4E06111434B
S12305000160BFF34F8F00BFFDE72DE9F04117460D460646002406E03046296800F054F8B3
S1230520641C2D1D361DBC42F6D3BDE8F08140F6FC700168491C04D0D0F800004FF480519D
S1230540FDE54FF010208069F8E74FF080510A69496900684A43824201D8102070470020B0
S1230560704770B50C4605464FF4806608E0284600F017F8B44205D3A4F5806405F5805566
S1230580002CF4D170BD0000F40A0000000000200CED00E00400FA05144801680029FCD085
S12305A07047134A0221116010490B68002BFCD00F4B1B1D186008680028FCD000201060CE
S12305C008680028FCD07047094B10B501221A60064A1468002CFCD0016010680028FCD0B5
S12305E00020186010680028FCD010BD00E4014004E5014070B50C46054600F073F810B9F1
S123060000F07EF828B121462846BDE8704000F007B821462846BDE8704000F037B80000B5
S12306207FB5002200920192029203920A0B000B6946012302440AE0440900F01F0651F844
S1230640245003FA06F6354341F82450401C8242F2D80D490868009A10430860081D016871
S1230660019A1143016000F03DF800280AD0064910310868029A10430860091D0868039A75
S1230680104308607FBD00000006004030B50F4C002200BF04EB0213D3F800582DB9D3F820
S12306A0045815B9D3F808581DB1521C082AF1D330BD082AFCD204EB0212C2F80008C3F842
S12306C004180220C3F8080830BD000000E001404FF08050D0F83001082801D0002070471F
S12306E0012070474FF08050D0F83011062905D0D0F83001401C01D000207047012070472D
S12307004FF08050D0F830010A2801D0002070470120704708208F490968095808471020CA
S12307208C4909680958084714208A49096809580847182087490968095808473020854950
S1230740096809580847382082490968095808473C20804909680958084740207D49096853
S12307600958084744207B49096809580847482078490968095808474C2076490968095835
S12307800847502073490968095808475420714909680958084758206E490968095808471A
S12307A05C206C4909680958084760206949096809580847642067490968095808476820B3
S12307C064490968095808476C20624909680958084770205F4909680958084774205D495C
S12307E009680958084778205A490968095808477C2058490968095808478020554909686B
S12308000958084784205349096809580847882050490968095808478C204E49096809584C
S1230820084790204B49096809580847942049490968095808479820464909680958084731
S12308409C204449096809580847A0204149096809580847A4203F49096809580847A8208A
S12308603C49096809580847AC203A49096809580847B0203749096809580847B42035499B
S1230880096809580847B8203249096809580847BC203049096809580847C0202D49096882
S12308A009580847C4202B49096809580847C8202849096809580847CC2026490968095864
S12308C00847D0202349096809580847D4202149096809580847D8201E4909680958084749
S12308E0DC201C49096809580847E0201949096809580847E4201749096809580847E82062
S12309001449096809580847EC201249096809580847F0200F49096809580847F4200D49DA
S1230920096809580847F8200A49096809580847FC2008490968095808475FF480700549E7
S1230940096809580847000003480449024A034B7047000000000020000B0000000B000053
S123096040EA010310B59B070FD1042A0DD310C808C9121F9C42F8D020BA19BA884201D91F
S1230980012010BD4FF0FF3010BD1AB1D30703D0521C07E0002010BD10F8013B11F8014BD7
S12309A01B1B07D110F8013B11F8014B1B1B01D1921EF1D1184610BD02F0FF0343EA0322A1
S12309C042EA024200F005B87047704770474FF000020429C0F0128010F0030C00F01B8087
S12309E0CCF1040CBCF1020F18BF00F8012BA8BF20F8022BA1EB0C0100F00DB85FEAC17CED
S1230A0024BF00F8012B00F8012B48BF00F8012B70474FF0000200B5134694469646203967
S1230A2022BFA0E80C50A0E80C50B1F12001BFF4F7AF090728BFA0E80C5048BF0CC05DF8EA
S1230A4004EB890028BF40F8042B08BF704748BF20F8022B11F0804F18BF00F8012B704780
S1230A60014B1B68DB6818470000002009480A497047FFF7FBFFFFF745FB00BD20BFFDE7E0
S1230A80064B1847064A1060016881F30888406800470000000B0000000B00001704000055
S1230AA0000000201EF0040F0CBFEFF30881EFF30981886902380078182803D100E00000B8
S1230AC0074A1047074A12682C3212681047000000B5054B1B68054A9B58984700BD00000A
S1230AE07703000000000020F00A000004000000001000000000000000FFFFFF0090D003EA
S1230B00FFFFFFFFFFFFFFFFFFFFFFFFFFFFFFFFFFFFFFFFFFFFFFFFFFFFFFFFFFFFFFFFF1
S1230B20FFFFFFFFFFFFFFFFFFFFFFFFFFFFFFFFFFFFFFFFFFFFFFFFFFFFFFFFFFFFFFFFD1
S1230B40FFFFFFFFFFFFFFFFFFFFFFFFFFFFFFFFFFFFFFFFFFFFFFFFFFFFFFFFFFFFFFFFB1
S1230B60FFFFFFFFFFFFFFFFFFFFFFFFFFFFFFFFFFFFFFFFFFFFFFFFFFFFFFFFFFFFFFFF91
S1230FE0FFFFFFFFFFFFFFFFFFFFFFFFFFFFFFFFFFFFFFFFFFFFFFFF0040070000E00700D7
S123100080F50020FDE70000D90C020039E8000039E8000039E8000039E8000000000000E8
S1231020000000000000000000000000C1E3000039E80000000000000DE30000B70C020032
S1231040BDE70000BDE70000BDE70000BDE70000BDE70000E3590200BDE70000BDE70000D2
S1231060BDE70000BDE70000BDE70000BDE70000BDE70000BDE70000BDE70000BDE700004C
S1231080BDE70000BDE70000BDE70000BDE70000BDE70000BDE70000BDE70000BDE700002C
S12310A0BDE70000BDE70000BDE70000BDE70000BDE70000BDE70000BDE70000BDE700000C
S12310C0BDE70000BDE70000BDE70000BDE70000BDE70000BDE70000BDE70000BDE70000EC
S12310E0BDE70000BDE70000BDE70000BDE70000BDE70000BDE70000BDE70000BDE70000CC
S123110081F0004102E000BF83F0004330B54FEA41044FEA430594EA050F08BF90EA020FFA
S12311201FBF54EA000C55EA020C7FEA645C7FEA655C00F0E2804FEA5454D4EB5555B8BFD0
S12311406D420CDD2C4480EA020281EA030382EA000083EA010180EA020281EA0303362D87
S123116088BF30BD11F0004F4FEA01314FF4801C4CEA113102D0404261EB410113F0004FF1
S12311804FEA03334CEA133302D0524263EB430394EA050F00F0A780A4F10104D5F1200E2F
S12311A00DDB02FA0EFC22FA05F2801841F1000103FA0EF2801843FA05F359410EE0A5F177
S12311C020050EF1200E012A03FA0EFC28BF4CF0020C43FA05F3C01851EBE37101F0004583
S12311E007D54FF0000EDCF1000C7EEB00006EEB0101B1F5801F1BD3B1F5001F0CD34908FD
S12312005FEA30004FEA3C0C04F101044FEA445212F5800F80F09A80BCF1004F08BF5FEADB
S1231220500C50F1000041EB045141EA050130BD5FEA4C0C404141EB0101013C28BFB1F554
S1231240801FE9D291F0000F04BF01460020B1FA81F308BF2033A3F10B03B3F120020CDAEF
S12312600C3208DD02F1140CC2F10C0201FA0CF021FA02F10CE002F11402D8BFC2F1200C03
S123128001FA02F120FA0CFCDCBF41EA0C019040E41AA2BF01EB0451294330BD6FEA04043D
S12312A01F3C1CDA0C340EDC04F11404C4F1200220FA04F001FA02F340EA030021FA04F38E
S12312C045EA030130BDC4F10C04C4F1200220FA02F001FA04F340EA0300294630BD21FAAC
S12312E004F0294630BD94F0000F83F4801306BF81F480110134013D4EE77FEA645C18BF8A
S12313007FEA655C29D094EA050F08BF90EA020F05D054EA000C04BF1946104630BD91EAC3
S1231320030F1EBF0021002030BD5FEA545C05D14000494128BF41F0004130BD14F5800420
S12313403CBF01F5801130BD01F0004545F0FE4141F470014FF0000030BD7FEA645C1ABF9C
S1231360194610467FEA655C1CBF0B46024650EA013406BF52EA033591EA030F41F400218B
S123138030BD00BF90F0000F04BF0021704730B54FF4806404F132044FF000054FF00001B8
S12313A050E700BF90F0000F04BF0021704730B54FF4806404F1320410F0004548BF404204
S12313C04FF000013EE700BF42004FEAE2014FEA31014FEA02701FBF12F07F4393F07F4F7E
S12313E081F06051704732F07F4208BF704793F07F4F04BF41F40021704730B54FF4607492
S123140001F0004521F000411CE700BF50EA010208BF704730B54FF000050AE050EA010273
S123142008BF704730B511F0004502D5404261EB41014FF4806404F132045FEA915C3FF45D
S1231440D8AE4FF003025FEADC0C18BF03325FEADC0C18BF033202EBDC02C2F1200300FAA9
S123146003FC20FA02F001FA03FE40EA0E0021FA02F11444BDE600BF70B54FF0FF0C4CF4B2
S1231480E06C1CEA11541DBF1CEA135594EA0C0F95EA0C0F00F0DEF82C4481EA030621EA5F
S12314A04C5123EA4C5350EA013518BF52EA033541F4801143F4801338D0A0FB02CE4FF0E2
S12314C00005E1FB02E506F00042E0FB03E54FF00006E1FB03569CF0000F18BF4EF0010E0C
S12314E0A4F1FF04B6F5007F64F5407404D25FEA4E0E6D4146EB060642EAC62141EA5551CF
S12315004FEAC52040EA5E504FEACE2EB4F1FD0C88BFBCF5E06F1ED8BEF1004F08BF5FEAA3
S1231520500E50F1000041EB045170BD06F0004646EA010140EA020081EA0301B4EB5C0452
S1231540C2BFD4EB0C0541EA045170BD41F480114FF0000E013C00F3AB8014F1360FDEBF34
S1231560002001F0004170BDC4F10004203C35DA0C341BDC04F11404C4F1200500FA05F3B4
S123158020FA04F001FA05F240EA020001F0004221F0004110EBD37021FA04F642EB06010F
S12315A05EEA430E08BF20EAD37070BDC4F10C04C4F1200500FA04F320FA05F001FA04F2BD
S12315C040EA020001F0004110EBD37041F100015EEA430E08BF20EAD37070BDC4F1200584
S12315E000FA05F24EEA020E20FA04F301FA05F243EA020321FA04F001F0004121FA04F227
S123160020EA020000EBD3705EEA430E08BF20EAD37070BD94F0000F0FD101F000464000C8
S123162041EB010111F4801F08BF013CF7D041EA060195F0000F18BF704703F0004652002A
S123164043EB030313F4801F08BF013DF7D043EA0603704794EA0C0F0CEA135518BF95EAA6
S12316600C0F0CD050EA410618BF52EA4306D1D181EA030101F000414FF0000070BD50EAA9
S1231680410606BF1046194652EA430619D094EA0C0F02D150EA013613D195EA0C0F05D1E6
S12316A052EA03361CBF104619460AD181EA030101F0004141F0FE4141F470014FF0000050
S12316C070BD41F0FE4141F4780170BD70B54FF0FF0C4CF4E06C1CEA11541DBF1CEA1355DE
S12316E094EA0C0F95EA0C0F00F0A7F8A4EB050481EA030E52EA03354FEA013100F0888039
S12317004FEA03334FF0805545EA131343EA12634FEA022245EA111545EA10654FEA002696
S12317200EF000419D4208BF964244F1FD0404F5407402D25B084FEA3202B61A65EB030539
S12317405B084FEA32024FF480104FF4002CB6EB020E75EB030E22BFB61A754640EA0C00AF
S12317605B084FEA3202B6EB020E75EB030E22BFB61A754640EA5C005B084FEA3202B6EB10
S1231780020E75EB030E22BFB61A754640EA9C005B084FEA3202B6EB020E75EB030E22BFBF
S12317A0B61A754640EADC0055EA060E18D04FEA051545EA16754FEA06164FEAC30343EACB
S12317C052734FEAC2025FEA1C1CC0D111F4801F0BD141EA00014FF000004FF0004CB6E71E
S12317E011F4801F04BF01430020B4F1FD0C88BFBCF5E06F3FF6AFAEB5EB030C04BFB6EB80
S1231800020C5FEA500C50F1000041EB045170BD0EF0004E4EEA113114EB5C04C2BFD4EBBD
S12318200C0541EA045170BD41F480114FF0000E013C90E645EA060E8DE60CEA135594EA8E
S12318400C0F08BF95EA0C0F3FF43BAF94EA0C0F0AD150EA01347FF434AF95EA0C0F7FF4A5
S123186025AF104619462CE795EA0C0F06D152EA03353FF4FDAE1046194622E750EA4106C6
S123188018BF52EA43067FF4C5AE50EA41047FF40DAF52EA43057FF4EBAE12E74FF0FF3C51
S12318A006E000BF4FF0010C02E000BF4FF0010C4DF804CD4FEA410C7FEA6C5C4FEA430CF1
S12318C018BF7FEA6C5C1BD001B050EA410C0CBF52EA430C91EA030F02BF90EA020F00208A
S12318E0704710F1000F91EA030F58BF994208BF90422CBFD8176FEAE37040F00100704797
S12319004FEA410C7FEA6C5C02D150EA013C07D14FEA430C7FEA6C5CD6D152EA033CD3D06C
S12319205DF8040B704700BF8446104662468C461946634600E000BF01B5FFF7B7FF0028FE
S123194048BF10F1000F01BD4DF808EDFFF7F4FF0CBF012000205DF808FB00BF4DF808ED2E
S1231960FFF7EAFF34BF012000205DF808FB00BF4DF808EDFFF7E0FF94BF012000205DF841
S123198008FB00BF4DF808EDFFF7CEFF94BF012000205DF808FB00BF4DF808EDFFF7C4FFE6
S12319A034BF012000205DF808FB00BF4FEA410212F5001215D211D56FF47873B3EB6252D6
S12319C012D94FEAC12343F0004343EA505311F0004F23FA02F018BF404270474FF0000007
S12319E0704750EA013005D111F0004008BF6FF0004070474FF00000704700BF4A0011D2AB
S1231A0012F5001211D20DD56FF47873B3EB62520ED44FEAC12343F0004343EA505323FAE2
S1231A2002F070474FF00000704750EA013002D14FF0FF3070474FF0000070474FEA41022E
S1231A40B2F1E04324BFB3F5001CDCF1FE5C0DD901F0004C4FEAC0024CEA5070B2F1004FE8
S1231A6040EB830008BF20F00100704711F0804F21D113F13872BCBF01F00040704741F41D
S1231A8080114FEA5252C2F11802C2F1200C10FA0CF320FA02F018BF40F001004FEAC123EE
S1231AA04FEAD32303FA0CFC40EA0C0023FA02F34FEA4303CCE77FEA625307D150EA013310
S1231AC01EBF4FF0FE4040F44000704701F0004040F0FE4040F40000704700BF7BB972B9D5
S1231AE00029BEBF00204FF0004106E008BF00281CBF6FF000414FF0FF3000F0B9B9ADF1DE
S1231B00080C6DE904CE002909DB002B1ADB00F04DF8DDF804E0DDE9022304B07047404292
S1231B2061EB4101002B1BDB00F040F8DDF804E0DDE9022304B0404261EB4101524263EB80
S1231B4043037047524263EB430300F02FF8DDF804E0DDE9022304B0404261EB4101704726
S1231B60524263EB430300F021F8DDF804E0DDE9022304B0524263EB4303704753B94AB9EA
S1231B80002908BF00281CBF4FF0FF314FF0FF3000F06EB9ADF1080C6DE904CE00F006F892
S1231BA0DDF804E0DDE9022304B070472DE9F047089D0E4604468C46002B40F081808A4288
S1231BC0174645D9B2FA82F24AB1C2F1200106FA02F320FA01F1974041EA030C94404FEA78
S1231BE0174E230CBCFBFEF6B9B20EFB16CC43EA0C4306FB01F0984209D9FB1806F1FF3CDD
S1231C0080F01581984240F21281023E3B441B1AA4B2B3FBFEF00EFB103344EA034400FB79
S1231C2001F1A14209D93C1900F1FF3380F00181A14240F2FE8002383C44641A40EA064044
S1231C4000211DB1D4400023C5E90043BDE8F08702B9FFDEB2FA82F2002A4FD1CB1B4FEA2C
S1231C60174E1FFA87F80121B3FBFEFC260C0EFB1C3346EA034608FB0CF3B34207D9BE19E8
S1231C800CF1FF3002D2B34200F2EB808446F61AA3B2B6FBFEF00EFB106643EA064408FB27
S1231CA000F8A04507D93C1900F1FF3302D2A04500F2D2801846A4EB080440EA0C40C0E7D8
S1231CC08B4208D9002D00F0AF800021C5E900060846BDE8F087B3FA83F1002949D1B3426E
S1231CE002D3824200F2BB80841A66EB030301209C46002DAAD0C5E9004CA7E7C2F120031D
S1231D009740D8409140DE404FEA174E08434FEA104CB6FBFEF11FFA87F80EFB11664CEA75
S1231D20064601FB08F3B34204FA02F409D9BE1901F1FF3C80F08E80B34240F28B800239A2
S1231D403E44F31A86B2B3FBFEF00EFB103346EA034600FB08F3B34207D9BE1900F1FF3C89
S1231D6074D2B34272D902383E44F31A40EA01417AE7C1F1200703FA01F422FA07F31C4303
S1231D8020FA07F906FA01F34FEA144CFE4049EA03094FEA1943B6FBFCFE1FFA84F80CFB3F
S1231DA01E6643EA06460EFB08FAB24502FA01F200FA01F308D9A6190EF1FF3048D2B24564
S1231DC046D9AEF1020E2644A6EB0A061FFA89F9B6FBFCF00CFB106649EA064600FB08F8F7
S1231DE0B04507D9A61900F1FF3C2DD2B0452BD90238264440EA0E40A6EB0806A0FB028946
S1231E004E45C446CE4618D315D075B3B3EB0C0266EB0E0606FA07F722FA01F3CE401F4386
S1231E20C5E90076002111E7294628460EE76646EDE6184601E74345E7D2B8EB020C69EB84
S1231E4004040138A646E0E76046D3E760468CE78646B9E7614674E702383C442BE7084689
S1231E6047E7ACF1020C3E4411E72946EEE600BF704700BF000000007FB52B4C2B4D2368E5
S1231E8013F0040F0BD02A4A2A4B2B492B489B1ADB089B012A7843F004031CF07CFD2D7843
S1231EA0002D3AD06A1E5642254B56414FF4F47202FB0636306901282FDD07EE900AF8EE9B
S1231EC0E77A17EE900AFFF77FFA15A3D3E90023FFF7D2FAFFF7B2FD07EE900AFDEEE77AB6
S1231EE0304617EE901ACDED037A17F037FC2268530712D50E490F4A039B1248521AD2088F
S1231F00920142F004021049ADF800200F4A012D18BF0A4608491CF057FD002004B070BD74
S1231F20CDCCCCCCCCCCEC3FE80B0020285C00201C6D0200946D0200E7B202003FAE0200DA
S1231F40701200205AAE020056AE020051AE02002DE9F04D164690B005460F46002209A967
S1231F6030461EF05CFF099B1B78A3B1DFF82081002458F8041B30461FF032F860B10134F3
S1231F80382CF6D12846404A334602211DF093F96FF0220028E00446BB680AAA1B69A1B264
S1231FA03846984700281FDB0B98FFF7FBF934A3D3E90023FFF78AFB06460A980F46FFF7A7
S1231FC0F1F902460B4630463946FFF79FF8372C82468B460BDDCDE900AB2C4A23460021B3
S1231FE028461DF068F9002010B0BDE8F08D284B53F8248024F00403032B0CD00B2C0AD067
S1232000CDE902AB234ACDF800802346002128461DF051F9E7E70F98FFF7C4F918A3D3E9B9
S12320200023FFF753FB06460E980F46FFF7BAF902460B4630463946FFF768F8CDE90601A4
S12320400D98FFF7AFF90EA3D3E90023FFF73EFB06460C980F46FFF7A5F902460B46304692
S12320603946FFF753F8CDE902ABCDE904010A4ACDF800802346002128461DF01CF9B2E732
S12320800000000080842E41AFDF020040DF02005C0800205FDF02007BDF020000000000F8
S12320A02DE9F04F2DED028B054687B050688A46164619F0E7FB044660B93F4A0221284652
S12320C01DF0F9F86FF01504204607B0BDEC028BBDE8F08F00221146B0681EF0A0FE0022B0
S12320E011468046F0681EF09AFE00220746114630691EF094FEBAF1060F814616D1002232
S1232100706911461EF08BFEC3B20293A36804AA5B6841462046984750B16FF00404274AC9
S12321202346022128461DF0C6F8CDE70023ECE7DDE90463A7FB06AB07FB03BB03935046C0
S123214019A3D3E900235946FFF718FD18A3D3E900235B4508BF524508EE100A02D26FF05B
S12321602204DCE7039BA9FB066709FB037730460DA3D3E900233946FFF700FD0CA2D2E965
S12321800012BA4208BFB1420346E8D3A268029900911668204618EE102A4146B04704464D
S12321A0002891D0BBE700BF00CA9A3B00000000FFFFFFFFFFC99A3B43F0020059F0020079
S12321C0F8B50446084610EE105AFFF7EBF8064628460F46FFF7F8F802460B4630463946F2
S12321E0FFF74AF911A3D3E90023FFF745F90E4B0022FFF76BFA06460F46FFF7D7FB0A4B47
S12322002060002230463946FFF736F9FFF7CEFB4FF47A7390FBF3F202FB13025343636034
S1232220F8BD00BFAFF3008000408F4005A3923A019D23400000000007EE901A9FED187AC3
S1232240F8EEE77AD0B567EE877A044617EE900AFFF7BAF810A3D3E90023FFF70DF9114BDD
S12322600022FFF733FA06460F46FFF79FFB0D4B2060002230463946FFF7FEF8FFF796FB82
S12322804FF47A7390FBF3F202FB130253436360D0BD00BFAFF300806811F16346DF913FFF
S12322A000008C4000408F400329F8B504460D4613D0072963D06A4B1B6813F0060F09D05A
S12322C06849694B6948C91AC908890141F002011CF03BFB6FF0220028E0002A3CD0062A41
S12322E0F8D15E681A68624BF717C3FB0267012E77F1000340DB5F480021301847EB0101EE
S123230051A3D3E90023FFF7E9FB02280FD010280FD004280FD008282ED129462046E6688F
S123232022F010F9002808DA6FF00400F8BD0025F3E70125F1E70225EFE74F4B33F8150088
S1232340FFF730F842A3D3E90023FFF795F8FFF775FB30610020E9E71988484B33F8020BC1
S1232360814206D1D1B2204611F096FB0028F1DADAE701320B2AF1D16FF01500D6E7002A0B
S123238050D0062AA6D15A681046D1171A68384BC3FB02010B460246B421A2FB0167012A0E
S12323A001FB037773F100032CDB35482AA3D3E9002330184FF0000147EB0101FFF78EFBD1
S12323C0F52827D0B0F5FA7F26D0B0F57A7F25D0B0F5FA6F24D07D28CED1042529462046FA
S12323E0E66822F0C2F800289EDB264B33F81500FEF7D8FF244B0022FFF73EF8FFF71EFBD5
S12324003062A7E72148301813A3D3E9002347F1FF31D3E70025E1E70125DFE70225DDE76C
S12324200325DBE71988154B33F8020B814204D1D1B2204622F0AEF898E701320B2AF3D191
S12324409AE700BFAFF300803AA395000000000008AC1C5A643BAF3FD8EF2F0000000000F7
S1232460AC0B00201C6D02001C6D020072F1020040420F009DD14A00C4940200D6940200F7
S1232480ECF71700CC940200008011401408E8FF30B5104685B01C46062900F2C080DFE80E
S12324A001F00411447B8DA2A900012C40F0B7801378614A003B18BF012382F8A53000200C
S12324C005B030BD012C40F0AA8015783F2D00F2A680002023F0D6FB204617F03DFD564B72
S12324E0002405F50D6583F8C140ED030520B5FBF0F0FEF747FF4CA3D3E90023FEF7BCFF6E
S12325004BA3D3E90023FEF7FFFD47A3D3E90023FFF7DCF8FFF772FA00BA039003220DF194
S12325200D01062017F0FAFCC9E7042C77D12246014602A81EF0BCFD029C404B9C420DD931
S1232540002023F09FFB012017F006FD3A4B002283F8C1202046FEF715FFD6E7384B9C42EF
S123256008D9012023F08EFB002017F0F5FC324B0122EDE7334B9C4205D9022023F082FB41
S12325802D4B0222E4E7304B9C42E3D9032023F079FB294B0322DBE7042C40D101462246C6
S12325A001A81EF085FD019B0293224602A903A81EF07EFD032203A92820B3E7012C2ED187
S12325C0147803A90322092017F09AFB9DF80C3004F00F0423F00F0323438DF80C3003228C
S12325E003A909209EE7012C19D1134B127883F8A62064E70124224603A920468DF80C4082
S123260017F08CFC202303A922460D208DF80C3017F084FC0021632023F029FB4FE74FF00B
S1232620FF304DE7AFF300800000000080844E400000000000E9D640A04F002000E9A435AF
S12326400008AF2F0084D71700E1F505D0ED017ADFED066A90ED000AF8EEE77AB8EEC00A91
S123266087EEA67A37EE000A704700BF00247449012901BF034A137883F00103137000205F
S1232680704700BF1B560020022913B504460AD0164A02211CF00FFE20461CF02FFE4FF09E
S12326A0FF3002B010BD50681EF01DFB104B009000241868019403216B4622461BF09FF986
S12326C0A04210DA0B4B1B685B0709D00A490B4B0B48C91AC908890141F001011CF035F96F
S12326E06FF00400DDE72046DBE700BF6C970200D4300020B00B0020246D02001C6D0200A6
S12327007F970200022913B504460AD0164A02211CF0D1FD20461CF0F1FD4FF0FF3002B0A9
S123272010BD50681EF0DFFA104B009000241868019406226B4603211BF061F9A04210DAD7
S12327400B4B1B685B0709D00A490B4B0B48C91AC908890141F001011CF0F7F86FF0040096
S1232760DDE72046DBE700BF6C970200D4300020B00B0020246D02001C6D0200B09702003F
S123278030B585B04048414D19F07CF8286080B93F4B1B685C0709D03E493F4B3F48C91A03
S12327A0C908890141F001011CF0CFF86FF012041BE03B4823F0D9F93A4823F0D6F92868E8
S12327C0394B019383689B6893B9314B1B68580709D03049304B3548C91AC908890141F08C
S12327E001011CF0B2F86FF00404204605B030BD2F4A01A9984704460028E6D10C23CDE99E
S123280002302868032102AB22461BF0F8F800280CDA1F4B1B685907E5D01E491E4B254871
S1232820C91AC908890141F00101DAE72868072102AB22461BF0E3F800280CDA144B1B68BF
S12328405A07D0D01349144B1B48C91AC908890141F00101C5E7286883683821DB68984742
S12328600028C2DA0A4B1B685B0709D009490A4B1248C91AC908890141F001011CF065F8A2
S12328806FF01504B1E700BFD9970200D4300020B00B0020246D02001C6D0200E19702005C
S12328A0983000209030002001000300FE970200F52800007F970200259802004D980200D6
S12328C070B50B4E044630680D4668B164B183683821DB68984738B9306883682246294662
S12328E01B69BDE8704018476FF0150070BD00BFD4300020F0B5032199B08E488E4F8F4E76
S1232900FFF7DEFF8B48FFF7A1FE8D48B0EE405AFFF79CFE8B4835EE405AFFF797FE8A48EE
S1232920B0EE406AFFF792FE384636EE406AFFF78DFE3046F0EE405AA7F11005FFF786FEE3
S12329400FCD26EE066A05EE056AA6F110040FC435EEC00A7D4BDFED7E6A93ED007A7D4D06
S123296000EE006A97E80300F2EE027A07EE276A86E80300B2EE047AC6EE077AC3ED007AA9
S1232980754BDB6893ED067A2B7867EEA66AB8EE477AF4EEC76AF1EE10FA40F3A48023BB90
S12329A017EE900AFEF710FD6C4ACDE900016C4840210CF0E5FB6B4B1B685A070FD56A4BE1
S12329C06A4C6748E41AE40805F09CFCA40144F0040402466649674823461BF0DCFF664893
S12329E0002116F0F1FE01232B70644B1B78002B77D05048FFF72AFE524810EE104AFFF7AC
S1232A0025FE4D4810EE105AFFF720FE10EE100AFEF7DAFCCDE904012846FEF7D5FCCDE9F6
S1232A2002012046FEF7D0FC4E4D554ACDE90001402108A80CF0A4FB2B6803F00703022B0E
S1232A400ED9494A494C08A8A41AE40805F05AFCA40144F00304014622464A481BF084FF0F
S1232A60494B18688368494A1B69072198474748FFF7ECFD464810EE103AFFF7E7FD45488A
S1232A8010EE104AFFF7E2FD184610EE106AFEF79BFC02460B463046CDE90623FEF794FC30
S1232AA0CDE902012046FEF78FFCDDE90623CDE90001394908A80CF07BFB2B6803F0070399
S1232AC0022B0ED9284A294C08A8A41AE40805F019FCA40144F003040146224629481BF088
S1232AE043FF19B0F0BD13B317EE900AFEF76CFC1A4ACDE900011A4840210CF041FB194BDE
S1232B001B685B070FD5184B184C1548E41AE40805F0F8FBA40144F004040246144915480F
S1232B2023461BF038FF1D48002116F04DFE00235AE700BFA4300020B4300020E8300020BC
S1232B40D8300020AC300020E0300020A030002000007A44DA550020B40600206898020044
S1232B60DB550020B00B00201C6D0200246D0200ED9902006B980200903000201B5600200A
S1232B809998020073D10200D4300020BC300020C4300020CC300020BD9802009830002019
S1232BA008B50346104623B9BDE808400D4814F0ADBC012B06D10B4B0B4A00211CF07BFBD9
S1232BC0012008BD094A12685207F9D00849094A0948521AD208920142F0010219461BF0AF
S1232BE0C3FEEDE71C56002078D10200C40B00201C6D02004C6D0200059A02000D490E4ADB
S1232C0042F210701368B3FBF0F30B601268B2FBF0F300FB13236420B3FBF0F34B60B2FBDD
S1232C20F0F300FB1322054B8A60002018705870704700BFF030002008F007001C5700208B
S1232C40012838B5044610D8094D2A5C6AB918B101232B55002038BD14F040FC05482146B3
S1232C6014F044FC0028F3D0F5E74FF0FF30F2E71C570020D12D000030B5194B194A1B881E
S1232C8089B00C460792184A0692184A0592184A0492184A956803955568029512680192C9
S1232CA0154A12880092154A0CF06AFA002802DB631E834211DC124B1B685B070BD0114A16
S1232CC0114B9B1ADB089B01014643F001030F4822461BF060FE6FF0150009B030BD00BFE1
S1232CE00CF00700789A02003D9702006697020014970200F03000200EF007001E9A020038
S1232D00C40B00201C6D02004C6D02007C9A020073B50128069E054601D900202FE0244BAA
S1232D201B5C002BF9D0012919D0022929D079BB4FF480711F48FFF79FFFFF2801461AD929
S1232D401D4B1B685B07E8D01C4A1D4B1D48D21AD208920142F001021BF006FEDDE70021B5
S1232D604FF4807301930846124A01AB00F0D2FC01990029D1DD32462846FFF711FF02B062
S1232D8070BD11481BF04AF8B1200CF053FAC4E7094B1B6803F00703022BBED9074A084B5B
S1232DA00A48D21AD208920142F00302D4E700BF1C5700201C560020C40B00204C6D0200E4
S1232DC01C6D0200D79A02001F9B0200419B0200F7B51A4F3B6803F00703022B04460D46D8
S1232DE016460BD9164A174B9B1ADB089B010A4643F00303014614481BF010FE94F9003097
S1232E00002B05DA386810F007000BD103B0F0BD21780096ABB2224601F07F010020FFF746
S1232E2077FFF3E7064B07490848C91AC908890141F001011BF089FD0020E7E7C40B00206E
S1232E401C6D02004C6D02005F9B02006B9B020038B50A4D41690446182268691EF028F9B2
S1232E60A169A86920221EF023F9216928690A221EF078F8E368EB6038BD00BFD8060020BA
S1232E8038B5114DC16804461C22E8681EF010F92169286914221EF00BF96169686910229B
S1232EA01EF006F9A169A86928221EF001F9E169E86918221EF0FCF8216A286A1022BDE8C9
S1232EC038401EF0F5B800BFB40600202DE9F843AA4C23685A0780460F4615D5A84BA94D01
S1232EE0A948ED1AED08AD0145F004052B460A46A6491BF050FD23685B0705D5A4482B46C9
S1232F003A4641461BF08AFDA2484246394600F043FD2368054668B95F0709D09949984BF8
S1232F209D48C91AC908890141F001011BF00DFD0320A8E05E070BD5914A924B93499B1AE9
S1232F40DB089B01C268954843F004031BF023FDEB68012B11D0022B00F0978023685B0701
S1232F6000F08C80864B87498D48C91AC908890141F001011BF0E9FC80E08A4818F082FCC2
S1232F8023688146580715D57D4B7E4E86498748F61AF608B60146F0040633463A461BF057
S1232FA0FAFC2368590705D5814833463A4641461BF034FD28691AF03EFD01460646042040
S1232FC01AF010F90146074628691AF036FD7948D0F884309E42804610D0B9F1000F25D106
S1232FE023685B0740D0664B66497348C91AC908890141F001011BF0A8FC35E03246394689
S123300088301EF02EF80028E7D1236803F00703022B30D95B4A5A4B6848D21AD2089201CF
S123302042F0030231461BF09FFC24E03246394663481EF03DF8C8F88460D9F80830614AF7
S12330405E6880214FF401734846B04723685A070AD54C4A4A4B54495B48D21AD20892013A
S123306042F004021BF080FC2869FFF709FF5749574816F0A9FB384623F008FD2846454983
S12330801AF0E9FC0020BDE8F883464818F0FAFB23685E07814615D5394B3A4E4D484E4999
S12330A0F61AF608B60146F0040633463A461BF072FC2368580705D5484833463A464146C1
S12330C01BF0ACFC28691AF0BEFC0146064604201AF088F80146074628691AF0B6FC354845
S12330E003689E42804610D0B9F1000F23D123685A073DD0224B23493948C91AC90889019D
S123310041F001011BF021FC32E03246394604301DF0A7FF0028E7D1236803F00703022BCB
S1233120A9D9184A164B2F48D21AD208920142F00302314677E7324639462B481DF0B8FF3C
S1233140C8F80060D9F808301A4A5E68002184234846B047236859070AD50A4A084B1E49F3
S12331602248D21AD208920142F004021BF0FCFB2869FFF76DFE1E497AE700BFC80B0020E2
S12331801C6D0200546D0200899B020015A30200A29B020020040020AD9B0200CB9B0200C8
S12331A0759D0200F29B0200D4A20200FB9B0200299C02002C040020669C0200939C02000C
S12331C0B4040020B0040020389C0200B40600200C310020B69C0200F4A20200E49C0200C4
S12331E0239D0200519D020030040020F49C0200D806002070B5704818F044FB04466F4810
S123320022F0B3FC74B1A3686D4A1D68002184232046A847A3686B4A1D6880214FF40173C3
S12332202046A847664D684C2968481C55D067482A1D00F0A9FB2368064600283DD05907BE
S12332400AD5634A634B64496448D21AD208920142F004021BF088FB3046FFF7F9FD5B49B2
S123326030461AF0F4FB5E49544816F0ADFAD5F88410481C66D05B4A544800F07DFB2368BC
S12332800546002853D059070AD5514A514B52495548D21AD208920142F004021BF064FBEB
S12332A02846FFF7EDFD494928461AF0C8FB43484E4916F089FA002003E05A0702D16FF0AE
S12332C0150070BD4249434B4948C91AC908890141F001011BF039FBF1E7414E454973697D
S12332E03069012240F2B27CC3E903C25A614FF0EE330A22F3601DF035FEB3694FF4D772BB
S12333004FF03C0EC3E903E250210022C3E90521DA6123685B07A6D02E4B2D493648C91A3C
S1233320C908890141F001011BF00FFB9BE75A07C5D02749274B3148C91AC908890141F0A4
S12333400101C7E72949DFF8C4E0CA6800234EF66020C2E9033047F230556420C2E9055093
S12333600A692748C2E903334A69D3608A694FF46176C2E904604FF02B0C4EF6EE60C2E9D1
S123338006C02048D360C2E90803CA69D3601E4BC2E904E30B6A4B22DA6023685B0786D052
S12333A00C4B0B491448C91AC908890141F001011BF0CBFA7BE700BFF29B02000C310020B4
S12333C02C040020B0040020C80B002020040020546D02001C6D020029A302009C9D020037
S12333E0D8060020B4040020719E0200B4060020EE9D02001A9E0200209E0200C29E02009F
S1233400C9DA35000008AF2FC4C4C40080AE5E092DE9F04F2C4C2D4AE5682D4B2E69EF6812
S12334209BB013966E6914962669AD691595F568002D14BF9C4694463569002D14BF9E4629
S123344096466569ED68002D14BF98469046A569EE68002E14BF994691462E6916966E6980
S12334601796AE691896EE691996E669246AE468D5E908ABF568109474690F943469CDF853
S12334800CC0002D14BF1D461546CDE90D54199C0A94189C0994179C0894169CCDE9069492
S12334A0159C0294149C0194139C0094002F08BF1346CDE904E8074ACDE90BAB0BF060FE32
S12334C01BB0BDE8F08F00BFB4060020F29E0200ED9E0200F89E020010B54FF48061044676
S12334E01048FFF795FFB0F5806F014612D90E4B1B685B070BD00D4A0D4B0E489B1ADB086A
S12335009B0143F001034FF480621BF044FA6FF0150006E02046034B074A00211BF0CBFE12
S1233520002010BD1E570020C80B00201C6D0200546D020059A1020078D1020030B50E4A40
S1233540D2E905438BB06569089525690795E4680694DC6905949C6904945C6903941C6952
S12335600294DB68019313690093D368034A0BF007FE0BB030BD00BFD8060020A4A1020097
S123358010B54FF4806104461048FFF7D7FFB0F5806F014612D90E4B1B685B070BD00D4A9A
S12335A00D4B0E489B1ADB089B0143F001034FF480621BF0F0F96FF0150006E02046034BC7
S12335C0074A00211BF077FE002010BD1E570020C80B00201C6D0200546D020036A2020058
S12335E078D102002DE9F7430246074600200E46ADF8061000F03CF9344D30B92B685807E7
S123360015D1002003B0BDE8F08300211AF00FFAB6F5807F17DD2B685B07F2D02C492D4B5F
S12336202D48C91AC908890141F001013FE0294B274A2A48D21AD208920142F00102022179
S12336401BF092F9DDE7DFF8A480D8F800408CB3A3680DF10602D3F80490002102232046A6
S1233660C847C8B9D8F8000083683A465C6802213346A04780B92B6803F00703022B09D95C
S12336801349144B1648C91AC908890141F003011BF05BF90120B5E72B685907B1D00C49B5
S12336A00C4B1048C91AC908890141F001011BF04CF9A6E72B685A07A3D00549054B0A48B2
S12336C0C91AC908890141F00101F0E7B40B00202C6D02001C6D0200ADA3020034A302006E
S12336E055A302007AA3020099A30200CC31002008B5054818F0C6F8044B01211860BDE8F4
S12337000840034813F0F2BEF29B0200CC310020E53500002DE9F04F414E85B03468994605
S1233720002305461746ADF80E30002C3FD038B3B1F5807F26DCA3682046D3F800800DF150
S12337400E0202230021C047044650B93068BDF80E308268022114682A46A04704460028D8
S123376036D0304B1B685A0755D02F492F4B3048C91AC908890141F001011BF0E6F84AE0CD
S12337802C4DD8E70124ECE7002E0DDBB2450BDDEB6953F82830DB680093B81943465A4639
S12337A051460BF0EDFC064408F101082AE01D4B1B685B0701D100242DE01B491B4B1E48B4
S12337C0C91AC908890141F00101D6E7022422E0002FF0D02A46BDF80E10D9F800A000F0FC
S12337E047F805460028F1D04369019303690093C368124ADFF848B0514638460BF0C0FCF1
S1233800A0460646AB694345BED8C9F80060002128461AF00CF9204605B0BDE8F08F00BF83
S1233820CC310020B40B00202C6D02001C6D0200D5A30200285B002039A40200F7A30200CA
S123384028A40200034B10B504460FCB84E80F0010BD00BFE070020030B5044D04460FCDAA
S12338600FC495E80F0084E80F0030BDF070020013460A460146014814F05EB81471020041
S1233880044B03600023C0E90133C0E90333C0E905337047A8780200034B03600023C0E95C
S12338A00133C0E90333704714760200034B03600023C0E90133C360704700BFA47202004C
S12338C010B52822044600211DF01DFC014B236010BD00BF387A0200044B03600023C0E9B7
S12338E00133C0E903334361704700BFC0760200034B03600023C0E90133C360704700BF15
S1233900BC790200044B03600023C0E90133C0E903334361704700BF3875020010B520220B
S1233920044600211DF0EFFB014B236010BD00BFD47B020010B52422044600211DF0E3FB14
S1233940014B236010BD00BF2073020030B5044D04460FCD0FC495E8070084E8070030BD60
S1233960107D0200034B03600023C0E90133C0E9033370478C74020013460A460146014832
S123398013F0DABF2073020013460A460146014813F0D2BF9C77020013460A4601460148D7
S12339A013F0CABF8C740200034B10B504460FCB84E80F0010BD00BF28850200034B10B575
S12339C004460FCB84E80F0010BD00BF38850200034B10B504460FCB84E80F0010BD00BFBB
S12339E048850200034B10B504460FCB84E80F0010BD00BF58850200034B10B504460FCBA0
S1233A0084E80F0010BD00BF6885020030B5044D04460FCD0FC495E80F0084E80F0030BD89
S1233A2018700200034B10B504460FCB84E80F0010BD00BF78850200034B03600023C0E93E
S1233A400133C0E903337047BC80020013460A460146014813F070BFBC80020008B50021D3
S1233A60044822F02DF8044B00201870034B187008BD00BF58140020295C00202A5C002097
S1233A8008B5124B1B78012B16D164224FF4FA710F4822F02CF8192264210D4822F032F850
S1233AA001210B4822F00CF80A4B0B4A1978117002221A70002008BD4FF4FA7264210448A8
S1233AC022F015F800223221E7E700BF285C0020581400202A5C0020295C002010B50A4C2B
S1233AE064221146204622F002F800226421204622F008F80121204621F0E2FF034B032267
S1233B001A70002010BD00BF581400202A5C002010B5084904461DF063FA40B106492046C9
S1233B201DF05EFA002814BF0220002010BD0120FCE700BF51AE020056AE0200022938B530
S1233B40144604D81BF0DAFB6FF0150038BD5068FFF7DEFF0546A0681DF0C5F8054B06499B
S1233B6091FBF0F14FF4F47000FB053015F022FE0020EBE77012002040420F0070B5002668
S1233B800C460E60084905461DF02AFA48B1074928461DF025FA18B16FF015032360304678
S1233BA070BD0120FCE700BF09F8020082AE0200032973B5044615460AD0184A02211BF079
S1233BC07AFB20461BF09AFB4FF0FF3002B070BD002350680193FFF79BFF022806460BD1C8
S1233BE06B680F4A022120461BF065FB20461BF085FB6FF01500E9E701A9A868FFF7BEFFFF
S1233C00019B01460BB1AB68EBE7064B4FF4F47000FB063021F085FFD8E700BF6C970200DB
S1233C2086AE020070120020032973B5044615460AD0184A02211BF03EFB20461BF05EFB42
S1233C404FF0FF3002B070BD002350680193FFF75FFF01A90646A868FFF790FF022E01464E
S1233C600BD16B680C4A022120461BF024FB20461BF044FB6FF01500E4E7019B0BB1AB682E
S1233C80F0E7064B4FF4F47000FB063021F018FFD8E700BF6C97020086AE0200701200209D
S1233CA0032973B5044615460AD0184A02211BF002FB20461BF022FB4FF0FF3002B070BDC5
S1233CC0002350680193FFF723FF01A90646A868FFF754FF022E01460BD16B680C4A02216B
S1233CE020461BF0E8FA20461BF008FB6FF01500E4E7019B0BB1AB68F0E7064B4FF4F47080
S1233D0000FB063015F0F8FCD8E700BF6C97020086AE02007012002010B5054A0446022199
S1233D201BF0C9FA20461BF0E9FA4FF0FF3010BD6C970200042937B5144604D003B0BDE87E
S1233D403040FFF7E9BF5068FFF7E2FE0546A0681CF0C9FF0190E0681CF0C5FF054B019909
S1233D6002464FF4F47000FB053003B0BDE8304021F0F0BE70120020042937B5144604D0B0
S1233D8003B0BDE83040FFF7C7BF5068FFF7C0FE0546A0681CF0A7FF0190E0681CF0A3FFE3
S1233DA0054B019902464FF4F47000FB053003B0BDE8304021F0A6BE70120020042937B5FE
S1233DC0144604D003B0BDE83040FFF7A5BF5068FFF79EFE0546A0681CF085FF0190E06889
S1233DE01CF081FF054B019902464FF4F47000FB053003B0BDE8304021F079BE7012002078
S1233E0008B5144B1B691B69C3B1134B1B78012B16D164224FF4FA71104821F068FE1922C4
S1233E2064210E4821F06EFE01210C4821F048FE0B4B0C4A1978117001221A70002008BD09
S1233E404FF4FA726421054821F051FE00223221E7E700BFB4060020285C00205814002071
S1233E602A5C0020295C002008B50848002121F027FE074B074A1B781370012B03D10021B5
S1233E800846FFF7BDFF002008BD00BF58140020295C00202A5C0020032938B5144603D05D
S1233EA0BDE83840FFF738BF5068FFF731FE0546A0681CF018FF054B01464FF4F47000FB68
S1233EC00530BDE8384015F049BC00BF7012002008B549B1064B994204D10B6A0548D96866
S1233EE015F0DEFB002001E06FF0150008BD00BFB4060020581400202DE9FF413D4817F09F
S1233F00C1FC04463C4817F0BDFC0546002C6DD000286BD0E668A36820461B6840F2016264
S1233F20192198470446002859D13368334843F00073336021F019FE314821F016FE314B37
S1233F4031481A6A314B0393314BCDE900434FF4806702972946D268172315F025FB2D4B96
S1233F60CDE902732C4B2946CDE900430646162364222A482A4D15F017FB224680464FF4B7
S1233F800C7128461DF0BFF813220123C5E90123244B0721C5E903374FF41673C5E9051332
S1233FA03223EB61134817F06DFC2860D8B1284615F026F81C491D4B8B60074605F12800CC
S1233FC04C6021F0D6FD1A491A4B4C6005F138008B6021F0CEFD46EA080040EA0704204611
S1233FE004B0BDE8F0814FF0FF37F4E76FF01204F5E700BF9EAE0200A5AE02000832002096
S123400000320020B406002058140020CFAE0200008500200FAF0200808900207012002035
S12340204010002080800020DC31002025430000D0310020791E000038B53C4C0128207071
S12340401FD0022849D0D0B9394B1B685D070AD5384A394B39493A48D21AD208920142F0C2
S123406004021AF081FC0021364815F045FB0021354815F041FB3548002115F0A5FB207811
S123408038BD2B4D2A6850070AD52A4A2A4B2B492F48D21AD208920142F004021AF064FC18
S12340A06421284815F05AFB0121264815F024FB0021254815F020FB2B6859070AD51D4A12
S12340C01D4B1E492348D21AD208920142F004021AF04AFC20480021CFE7154D2A68520735
S12340E00AD5144A144B15491C48D21AD208920142F004021AF038FC6421134815F02EFB81
S12341000121114815F0F8FA0E48002115F0F4FA2B685B07DED5074A074B08491048D21ADF
S1234120D208920142F00402D2E700BF285C0020E80B0020946D02001C6D020001B3020063
S1234140ABAE0200581400207012002000320020BFAE0200D4AE020008320020FFAE020084
S123416013AF02001B491C4B1C4810B500244C608B6021F0FEFC1A491A4B1B484C608B60FB
S123418021F0F7FC19491A4B1A484C608B6021F0F0FC1949194B1A484C608B6021F0E9FCA5
S12341A01849194B19484C608B6021F0E2FC1849184B19484C608B6021F0DBFC1749184BE8
S12341C018484C608B6021F0D4FC2046FFF734FF204610BD10320020013E0000544F0020DD
S12341E028320020DD3A00006C4F002040320020813A0000F832002034320020693E00008B
S1234200F03200201C3200205D3A00005C4F0020E8310020294200008C350020F4310020BE
S1234220D13E00000C31002038B5B1B108780C4D0C4C78B100210C4821F042FC00210B482D
S123424021F03EFC0020FFF7F7FE05232B702370002038BD28702070FBE76FF01500F8E73C
S1234260295C00202A5C0020581400207012002010B5234C234B21781B68012917D00229C7
S123428024D0002931D158070AD51F4A1F4B20492048D21AD208920142F004021AF064FB1F
S12342A0012323702078BDE81040FFF7C5BE59070AD5154A154B16491748D21AD208920128
S12342C042F004021AF050FB0223EAE75A070AD50D4A0E4B0E491148D21AD208920142F02C
S12342E004021AF041FB0023DBE75B07FBD0064A064B0B48D21AD208920142F00102F0E703
S1234300285C0020E80B0020946D02001C6D020012B30200BFAE0200FFAE0200ABAE020014
S12343203DAF020038B51C4C1C4D226812F0040F0BD01B4A1B4B1C491C489B1ADB089B018B
S12343402A7843F004031AF026FB2B7823B1013B022B13D9002038BD23685B070AD5114A4A
S12343600F4B11491248D21AD208920142F004021AF0FAFABDE83840FFF77ABF00210D48DA
S123438021F09EFB0C4B1878FFF756FE0B4A00232B701370DEE700BFE80B00202A5C00206B
S12343A01C6D0200946D0200D1B2020056AF02006CAF020058140020285C0020295C0020ED
S12343C000487047EC150020004870470414002013B50029044613DD012803D000280CBF68
S12343E0022000200191FFF727FE064B01994FF4F47000FB043002B0BDE8104015F0AEB9F6
S12344000020EFE7701200207FB50F4B1B6803F00703022B14D90D4A0D4B01909B1A0A7861
S123442002924A780392DB088A7804929B01CA780592084843F00303052201A91AF0E3FA5C
S123444007B05DF804FB00BFD00B00201C6D0200646D020026B3020008B51C4B0B408B421E
S123446033D11B498B4216D11A4B1A601A4B1B6803F00703022B09D91849194B1948C91A40
S1234480C908890141F003011AF05FFABDE80840154801F0ABB9154A934216D10D4B0022F1
S12344A01A600D4B1B6803F00703022B09D90B490B4B0F48C91AC908890141F003011AF019
S12344C044FABDE8084001F0D7BA08BD030001D0020001D04C320020D00B0020646D020053
S12344E01C6D020036B302005C320020010001D05CB30200052808B516D8032817D8023885
S1234500012813D8144B1B6803F00703022B0DD9124B13491348C91AC9088901BDE8084052
S123452041F003011AF011BA0628EBD008BD0A4B1B6803F00703022B09D90949074B0A48E5
S1234540C91AC908890141F003011AF0FEF9BDE8084001F091BA00BFD00B00201C6D020075
S1234560646D020075B302009EB302002DE9F843134E144DAD1B80462D110027AF4202DB13
S12345800020BDE8F88306EB07190024002003F0D7FD844209D34FF0FF34032322460021F8
S12345A0484603F0E5FD0137E8E72146002003F0D1FD41461CF014FD0028EED00134E5E7BA
S12345C0BC6E0200CC6E020038B5284C284D2368002B3BD01B68BFF35B8FDB68BFF35B8FDA
S12345E0DB0733D52B6803F00703022B09D92149214B2248C91AC908890141F003011AF071
S1234600A4F923681E485C68211DFFF7FDFE1D4804F13001FFF7F8FE1B4804F13401FFF71B
S1234620F3FE2B6803F00703022B0DD9124B114A16491748D21A174BD2089201C91A42F09C
S1234640030209111AF090F9002038BD2B6803F00703022BF8D9084B06490F48C91AC90854
S1234660890141F003011AF070F9EDE74C320020D00B0020646D02001C6D0200B2B30200D2
S1234680C7B30200D3B30200DFB30200CC6E0200EBB30200BC6E020008B4020008B5924A1F
S12346A0924901201CF059F89148FFF75FFF9148FFF75CFF9048FFF759FF9048FFF756FFFD
S12346C08F48FFF753FF8F48FFF750FF8E48FFF74DFF8E48FFF74AFF8D48FFF747FF8D4888
S12346E0FFF744FF8C48FFF741FF8C48FFF73EFF8B48FFF73BFF8B48FFF738FF8A48FFF7A1
S123470035FF8A48FFF732FF8948FFF72FFFFEF771FD28B1404080F311884FF0030002DF88
S123472001F0E0FB28B1404080F311884FF0030002DFFFF7E1FB28B1404080F311884FF0AB
S1234740030002DF02F0CEF828B1404080F311884FF0030002DFFEF713F828B1404080F365
S123476011884FF0030002DF00F0A2F928B1404080F311884FF0030002DF01F0CBF828B1D9
S1234780404080F311884FF0030002DF01F0B8FB28B1404080F311884FF0030002DF44F600
S12347A0910000F083FC28B1404080F311884FF0030002DF02F022FB28B1404080F31188F9
S12347C04FF0030002DF01F0ABF928B1404080F311884FF0030002DF00F05AFD28B14040F5
S12347E080F311884FF0030002DFFFF7BBFC28B1404080F311884FF0030002DF02F016F851
S123480028B1404080F311884FF0030002DF00F05BF928B1404080F311884FF0030002DF40
S1234820002021F08AFB4EF6EE6021F0BEFB022021F0CFFB012021F080FB3E4807F0CEF875
S123484028B1404080F311884FF0030002DF3A483A4B43603A4B83600BF084FE394900209B
S12348601FF08EFD12F03AFE014600287AD0364B1B685A0709D0354A354B3648D21AD20826
S1234880920142F001021AF06FF84FF0FF30BDE808404FF0FF3117F067BF2B4B1B685B0789
S12348A0F3D02A4A2A4B2C48D21AD208920142F00102E8E7244B1B685807E6D0234A244B94
S12348C02648D21AD208920142F00102DBE71E4B1B685A07D9D01D4A1D4B2148D21AD20822
S12348E0920142F00102CEE75C3200201FB402002BB402008EAF0200C8B202002FB4020033
S12349003BB4020045B4020050B4020058B4020063B402006FB40200DC9902007FB40200A9
S123492093B40200A3B40200B1B40200BFB40200C6B40200F5440000503200205944000001
S1234940020001D0CFB40200D00B0020646D02001C6D0200E4B4020012B5020040B5020048
S123496078B50200FEF74AF90146002895D10120FEF766F9014600289CD1FEF761F9014610
S12349800028A4D1FEF7B4FE014600283FF47DAF064B1B685B073FF478AF054A054B064884
S12349A0D21AD208920142F001026CE7D00B0020646D02001C6D0200ADB5020008B5094B44
S12349C01B6803F00703022B09D90749074B0848C91AC908890141F0030119F0B6FF002001
S12349E008BD00BFF80B0020B46D02001C6D02003EB6020008B5094B1B6803F00703022BAA
S1234A0009D90749074B0848C91AC908890141F0030119F09AFF002008BD00BFF80B0020E2
S1234A20B46D02001C6D020056B6020038B51A4D2A6812F0060F0C4609D01849184B194869
S1234A40C91AC908890141F0020119F07EFF7CB92B685B0709D01149114B1348C91AC90892
S1234A60890141F0010119F070FF6FF0150038BD0E4B9C420ED1E369D868003818BF0120C2
S1234A8013F0E4FFE369586914F014F8E369186914F03CF80020EAE7F80B0020B46D0200D3
S1234AA01C6D02006CB60200A2B60200B4060020044BDB69D3E903020038596918BF0120C9
S1234AC014F050B8B40600200C490D4B0D4810B500244C608B6021F04CF80B490B4B0C4817
S1234AE04C608B6021F045F80A490B4B0B484C608B6021F03EF8204610BD00BF603200204F
S1234B002D4A00000C31002078320020F5490000904F00206C320020BD490000884F0020FB
S1234B2038B500293ED0214C214D0A7822702A6851070AD51F4A204B20492148D21AD20829
S1234B40920142F0040219F00FFF23781D4CA3B12B685A070AD5174A174B18491A48D21AD2
S1234B60D208920142F0040219F0FEFE00232370207813F027FD002038BD144B9B69DB6857
S1234B80002BF5D02B685B070AD50A4A0A4B0B490F48D21AD208920142F0040219F0E4FE7D
S1234BA00123E4E76FF01500E6E700BF2B5C0020000C0020C46D02001C6D02003FB9020077
S1234BC0E5B602002F5C002000B70200B40600201EB7020008B50A4B00221A70094B1B688A
S1234BE05B070AD5084A094B09490A48D21AD208920142F0040219F0B7FE002008BD00BF33
S1234C002D5C0020000C0020C46D02001C6D0200F0B802004DB7020010B5174B174C0122A0
S1234C201A70226852070AD5154A164B16491748D21AD208920142F0040219F095FE144B1A
S1234C401B78BBB1134B1B78A3B123685B070AD50B4A0C4B0C491048D21AD208920142F05C
S1234C60040219F081FE0D4B1B69DB6813B1032013F05CFC002010BD2D5C0020000C00207F
S1234C80C46D02001C6D0200DCB8020066B702002F5C00202E5C00207EB70200B406002037
S1234CA008B50A4B00221A70094B1B685B070AD5084A094B09490A48D21AD208920142F045
S1234CC0040219F051FE002008BD00BF2E5C0020000C0020C46D02001C6D0200C4B80200BC
S1234CE094B7020037B51C4B00221A701B4B1B7873B313F05FFC02281BD0194BDB68DA68E9
S1234D00BAB11D694FF4004440F2E73000214FF47A720023E4FB0501FCF730FF02460B46BB
S1234D204FF0FF304FF0FF31CDE900010D4818F079F90D4B1B685B070AD50C4A0C4B0D49ED
S1234D400D48D21AD208920142F0040219F00CFE002003B030BD00BF2C5C00202F5C002084
S1234D60B4060020D81A0020000C0020C46D02001C6D020007B90200AEB7020008B518F06B
S1234D80A1FE0D4BDB68DB68A3B10C4B1B6803F00703022B09D90A490A4B0B48C91AC908A9
S1234DA0890141F0030119F0D0FDBDE80840062013F0BCBB08BD00BFB4060020000C002043
S1234DC0C46D02001C6D0200C6B7020010B5174B174C01221A70226852070AD5154A164BD9
S1234DE016491748D21AD208920142F0040219F0BBFD144B1B78BBB1134B1B78A3B1236871
S1234E005B070AD50B4A0C4B0C491048D21AD208920142F0040219F0A7FD0D4B1B69DB6897
S1234E2013B1032013F082FB002010BD2E5C0020000C0020C46D02001C6D0200AFB802001D
S1234E40DDB702002F5C00202D5C00207EB70200B406002008B5134B01221A70124821F020
S1234E6093FC014628B9114814F0AEFC0E4818F029FE0F4821F088FC10B90D4818F022FEB9
S1234E800C4B1B685B070AD50B4A0C4B0C490D48D21AD208920142F0040219F065FD002081
S1234EA008BD00BF2C5C0020A01A0020F0320020D81A0020000C0020C46D02001C6D0200AA
S1234EC023B90200F6B7020037B51C4C18F0FAFDE268D2687AB31A4B1B6803F00703022B2B
S1234EE009D91849184B1948C91AC908890141F0030119F02AFDE3685D694FF4004440F23A
S1234F00E73000214FF47A720023E4FB0501FCF735FE02460B464FF0FF314FF0FF30CDE9CC
S1234F2000010B4818F07EF80A48002103B0BDE8304014F049BC03B030BD00BFB40600201E
S1234F40000C0020C46D02001C6D02000AB80200A01A0020F832002008B50F4B1B685B077F
S1234F600AD50E4A0E4B0F490F48D21AD208920142F0040219F0F8FC0C4B9B69DB6813B1FE
S1234F80022013F0D3FA0A4818F09CFD094818F099FD002008BD00BF000C0020C46D020036
S1234FA01C6D02009EB8020025B80200B4060020D81A0020A01A002010B501B3114CA142AC
S1234FC01BD1A369D86818B10F4B187880F001000E4B187013F0F6FAA369586913F076FA5D
S1234FE0A369187E13F082FAA36993F8240013F08DFAA369988B13F059FA002001E06FF062
S1235000150010BDB40600202B5C00202F5C00201D4B1B685B0737B50AD51C4A1C4B1D4933
S12350201D48D21AD208920142F0040219F09CFC1A4CA269D26812B1012013F077FA184B6F
S12350401B78D3B9E368DA68BAB11D694FF4004440F2E73000214FF47A720023E4FB050187
S1235060FCF78CFD02460B464FF0FF304FF0FF31CDE900010B4817F0D5FF0B4818F022FDDB
S1235080002003B030BD00BF000C0020C46D02001C6D02008EB802003CB80200B40600208B
S12350A02C5C0020D81A0020A01A0020F8B5574C064600224FF40C7120461CF024F8052522
S12350C00123C4E90153524BE3604FF480670723C4E904734FF4167C3223C4E906C34D481A
S12350E016F0D0FB206010B1204613F089FF4A494A4B4B488B6000254D6020F03AFD494958
S1235100494C4A484D608C6020F033FD48494948C1E90154484C20F02CFD2A464FF40C716D
S123512020461BF0F0FF06220123C4E90123434BE3604FF480610723C4E904134FF4167042
S12351403223C4E90603334816F09CFB206010B1204613F055FF3A493A4B3B488B604D6007
S123516020F007FD39493A4C3A484D608C6020F000FD394939483A4FC1E9015420F0F9FC57
S1235180384820F0F2FC384820F0EFFC37493848002221F0D0FA37493748002221F0CBFA1E
S12351A002233246062100203D7013F021FA054680B1324B1B685B0709D03149314B324815
S12351C0C91AC908890141F0010119F0BEFB6FF0150019E02D4CA369586913F077F9A36966
S12351E0187E13F083F9A36993F8240013F08EF9A369988B13F05AF9A369D86820B101208E
S1235200387013F0DFF92846F8BD00BF40160020008E002052B8020000330020CD4D000088
S12352206016002018330020A14C0000681600200C330020801600207018002080920020EF
S1235240B4320020194C000090180020CC320020D54B000098180020C0320020B01800200F
S12352602F5C0020F8320020F0320020C94E0000D81A00207D4D0000A01A0020000C0020FA
S1235280C46D02001C6D020059B80200B40600201649174B174810B500244C608B6020F0AF
S12352A068FC1549154B16484C608B6020F061FC1449154B15484C608B6020F05AFC1449F2
S12352C0144B15484C608B6020F053FC1349144B14484C608B6020F04CFC1349134B1448FC
S12352E04C608B6020F045FC204610BDE43200201150000008320020D8320020594F0000CC
S12353000032002090320020E54C00009830002084320020554E0000903000209C320020F5
S1235320214B00008C350020A8320020B94F00000C31002038B5054606481EF080FF044660
S123534028B10346044A0221284619F0B4FF204638BD00BF4C33002054B9020008B5054BB7
S1235360197829B1044A002119F0A5FF002008BD024AF9E7305C002079B902008CB902006A
S1235380194C1A4B1A4E1B4DE41A80B5E40837463378DBB128461EF0B8FF00281CDA164BEA
S12353A01B685B0705D0A101144841F0010119F0CCFA3B7853B11248AB6A03600121818083
S12353C0642205F0B9FD28461EF0B6FF002140F2676017F0C9F9DBE7B0F5FA7FE9DC284671
S12353E01EF06CFFE5E700BFD46D02001C6D0200305C00204C330020080C0020A3B90200FA
S1235400243300200F4B1B7810B5CBB90E4C0F490F484FF40042002317F0EAFB20461EF0CA
S123542011FE68B90B48A36A0360012181804FF4FA7205F081FD2046BDE810401EF07CBF8C
S123544010BD00BF305C00204C330020101B0020702F0020243300202DE9F04F2DED028BF4
S12354600C460978844D87B00646092900F29B81DFE811F00A004C0032016A0087009901E5
S1235480B900E300F200D500E16969B12B685D0737D07A4A7A4B7B48D21AD208920142F06C
S12354A0010219F061FA2CE077481EF0C8FE014658B12B685C0724D0704A714B7348D21A8B
S12354C0D208920142F00102EBE7714B01221A702B6803F00703022B09D96849684B6D4833
S12354E0C91AC908890141F0030119F02EFA6A4821F080F869496A484FF40042002317F0B6
S123550077FB07B0BDEC028BBDE8F08F2B6803F00703022B0AD9594A594BE1696148D21A3E
S1235520D208920142F0030219F01EFA5A495C484FF40042002317F05BFB55495A480023F3
S12355400B7014F041F9DCE7E1692B6851B15807D7D04A4A4A4B5548D21AD208920142F095
S123556001029EE75A07CCD5454A444B504951489B1ADB089B01A28843F0040319F00BFAA7
S1235580BFE7E1692B6851B15B07BAD03B4A3C4B4948D21AD208920142F0010281E75F079D
S12355A00BD5374A354B424944489B1ADB089B01A28843F0040319F0EEF9A388ADF808305F
S12355C002A930461EF0EDFD0146002899D02B68580796D0294A2A4B3948D21AD2089201BC
S12355E042F001025DE7E1692B6851B15A0788D0224A234B3348D21AD208920142F00102B3
S12356004FE75B077FF57DAF1D4A1C4B28492E489B1ADB089B01A28843F00403AEE72B68D9
S12356205F077FF56EAF154A154B21492748D21AD208920142F0040233E72B685E077FF5C0
S123564060AF0F4A0D4B1A4921489B1ADB089B01A28843F0040391E72B685D077FF551AF3F
S1235660074A064B12491B489B1ADB089B01A28843F0040382E700BF080C0020D46D02008F
S12356801C6D0200B8B902004C330020CFB90200305C0020F3B90200101B0020401B0020BF
S12356A0702F00200ABA02004033002026BA02006ABD02003BBA020054BA020069BA020097
S12356C082BA0200A1BA0200B7BA0200D1BA0200E5BA0200FEBA0200A3683A4E3A496769EA
S12356E0D4F8049008EE103A2B68761A58074FEAD60620D54FEA8618DFF8E4A0334848F095
S12357000408ADF800803B465146E26919F05CF92B6859070FD5238B03934846237B0493B5
S1235720CDF808A002F0EEFD434605900422284802A919F068F9DFF8ACA0DFF8ACB0B7B194
S12357407F2F3A46234828BF7F2251461EF015FEB0F1000813DA18F10B0F10D02B685A07DF
S123576005D0B1011C4841F0010119F0EEF8238B1848ADF8083002A91EF0ECFCC1E618EEDF
S1235780101A3B465246484600F0CCFB40B12B685B0705D0B10141F00101584619F0D5F869
S12357A0A7EB0807CBE72B6803F00703022B7FF6A8AE044A044B0948D21AD208920142F091
S12357C003026EE6D46D02001C6D020019BB020040BB02004C33002060BB020093BB0200BF
S12357E06ABD0200315C002078BB02002DE9F043364C374F374E89B0804620461EF009FC4C
S1235800354BA364354BE3620E2323630423344A84F85E30334BE36400254FF48073324838
S12358202365C4E91523C4E90E55666384F8245038601BF0C5FB4FF00109786087F8089093
S123584027642A4F2A4838601BF0BAFB94F86030A6F8009043EA090384F860300223A4F826
S12358605C3045F607337380D8F800307360214B786029463022184667641BF044FC1E4B7B
S12358801E4941603022294618461BF03CFC1C4A4260FFF7B7FD1B4C1B490495002200233F
S12358A0CDE906230523CDE90253CDE90055174B41F20802204617F0D1F81549204617F027
S12358C01BF8284609B0BDE8F08300BF4C33002034330020CE55002059540000ABBB020035
S12358E0B15D0020B15C0020BABB02002C330020C5BB0200401B0020101B0020455A00006C
S123590005540000701B00200097002081530000CDBB020008B5024820F027F9002008BD4E
S12359204033002038B5164C0546164820601BF047FB60601448E0601BF042FB206113488B
S1235940A0611BF03DFB1249124BE0614B6012480C601EF04DFC044678B1104B1B685B078B
S12359600BD00F4A0F4B9B1ADB089B01024643F001030D48294619F00EF8204638BD00BFF5
S1235980B8330020D2BB0200DFBB0200E9BB0200B0330020030001004C330020080C00204D
S12359A01C6D0200D46D0200F4BB020010B514465368044A002119F07EFC6068FFF7B2FF29
S12359C0002010BD1EBC020030B587B000230D4614468DF8083000901BF0F2FA01902846CB
S12359E003951BF0EDFA0B4A04901368ADF81430591C9DF816301160640023F0030304F09A
S1235A0003041C43694604488DF816401EF05DFB07B030BD483300204C33002013B593683F
S1235A200093536814460021054A19F044FCD4E901010022FFF7C8FF002002B010BD00BF05
S1235A403BBC020008B50748FFF76CFF064B074918680122FFF7B8FFBDE808400449054864
S1235A6013F0B2BE65BC0200343300206BBC0200305C00204033002010B50F4C2278CAB168
S1235A800E4B1B6813F0060F09D00D490D4B0E48C91AC908890141F0020118F056FF0B480F
S1235AA020F0A8FD0A4820F0A5FD0A481EF0F2FB0023237010BD00BF305C0020080C0020BA
S1235AC0D46D02001C6D020072BC0200101B0020401B00204C33002000B50246A1B070B1F0
S1235AE069B191F900306846802109F049FB054800226946FFF768FF21B05DF804FB6FF043
S1235B001500F9E77BBD0200014618B103480022FFF75ABF6FF01500704700BF7BBD0200A2
S1235B20F8B59F4C9F4B2360FEF74AFC0646FEF74BFC9D4D9D4BA3600746211D3046E5607E
S1235B4020F017F89A4B04F1100106F10800C4E9053520F00EF8974B04F11C0106F1100040
S1235B60C4E9083520F005F8934B04F1280106F11800C4E90B351FF0FCFF904B04F1340123
S1235B8006F12000C4E90E351FF0F3FF8C4B04F1400106F12800C4E911351FF0EAFF894B0E
S1235BA004F14C0106F13000C4E914351FF0E1FF854B04F1580106F13800C4E917351FF03E
S1235BC0D8FF824B04F1640106F14000C4E91A351FF0CFFF7E4B04F1700106F14800C4E998
S1235BE01D351FF0C6FF7B4B7B4E04F17C013846C4E920351FF0BDFF784B04F1880107F1F6
S1235C000800C4E923351FF0B4FF754B754804F19401C4E926351FF0ACFF734B734804F17A
S1235C20A001C4E929351FF0A4FF714B714804F1AC01C4E92C351FF09CFF6F4B6F4804F1CD
S1235C40B801C4E92F351FF094FF6D4B6D4804F1C401C4E932351FF08CFF6B4BC4F8D43089
S1235C6004F1D001694B6A48C4F8D8301FF081FF684B694804F1DC01C4E938351FF079FFCA
S1235C80664B674804F1E801C4E93B351FF071FF644B04F1F4013046C4E93E351FF069FF80
S1235CA0614B04F5807106F10800C4E941351FF060FF5E4B04F5867106F11000C4E94435F4
S1235CC01FF057FF5A4B04F58C7106F11800C4E947351FF04EFF574B04F5927106F1200077
S1235CE0554EC4E94A351FF044FF544B04F598713046C4E94D351FF03CFF514B04F59E714B
S1235D0006F10800C4E950351FF033FF4D4B04F5A47106F11000C4E953351FF02AFF4A4B5E
S1235D2004F5AA7106F11800C4E956351FF021FF464B04F5B07106F12000454EC4E9593545
S1235D401FF017FF434B04F5B6713046C4E95C351FF00FFF404B04F5BC7106F10800C4E93E
S1235D605F351FF006FF3D4B04F5C27106F11000C4E962351FF0FDFE394B04F5C87106F1C1
S1235D801800C4E965351FF0F4FE364B06F1200004F5CE71C4E968351FF0EBFE0020F8BDB8
S1235DA0DC3300207BBD0200095B00008CBD02009ABD0200A9BD0200C3BD0200DCBD0200E9
S1235DC0F3BD02000BBE020024BE02003CBE020058BE020072BE0200601000207FBE020049
S1235DE08DBE0200544F00209FBE02006C4F0020B0BE0200F8320020C4BE0200644F002044
S1235E00D6BE02005C4F0020E9BE0200D95A0000804F002009BF0200904F00201CBF0200AC
S1235E20884F002031BF020042BF02005ABF020070BF02008DBF020060160020A4BF0200DD
S1235E40BFBF0200E1BF020001C0020028C002009018002049C0020063C0020084C0020031
S1235E60A3C00200C9C00200D0ED017ADFED066A90ED000AF8EEE77AB8EEC00A87EEA67AE7
S1235E8037EE000A704700BF0024744910B50F484FF48061FCF7F0FE041E10DA0C4B1B6871
S1235EA05B070AD00B4A0C4B0C48D21AD208920142F00102214618F057FD204610BDBDE879
S1235EC01040024906480022FFF77EBDB15E0020100C0020E46D02001C6D0200D79A0200C6
S1235EE0E9C0020008B504481FF03FFE03481FF03CFE002008BD00BF8C35002084350020AC
S1235F0010B50549054B06488B6000244C601FF030FE204610BD00BF94350020D3DA01004B
S1235F20403300202DE9F0439846002302F808308A4C236881465807ADB00E46174615D5CF
S1235F40874B884D1046ED1A02F0DCF91190484602F0D8F9ED08AD0145F004050346119AAB
S1235F6081498248ADF8005018F02EFD0C2E21D17F49324648461BF074F8002840F0FF8316
S1235F8041463846FCF7A2FF064608B900260DE0236859070AD0734A714BD21AD2089201AD
S1235FA0014642F00102734818F0DEFC30462DB0BDE8F083092E71D132466F4948461BF017
S1235FC050F80646002840F0DA836C483A464146FDF73CFD0546C0B923685A0701D10326E1
S1235FE0E4E75F4A5F4D6648AD1AED08AD0145F00105294618F0A9FC23685B07EFD05D48BD
S12360002A46032118F0B0FCE9E7C368062B1DD10369DBB1DA68022A1DD0032A2BD0012A74
S123602014D123685F070AD54E4A4D4B55495648D21AD208920142F0040218F095FC0123ED
S123604052488DF8983026A913F0BEFB4B49284617F005FDAAE723685C070AD5414A404B4B
S123606048494B48D21AD208920142F0040218F07BFC0023E4E79A692368269258070AD576
S12360803749384B43485B1ADB089B013D4943F0040318F080FC404826A9D5E70A2E40F0BB
S12360A06E833E49324648461AF0DBFF0546002840F065833A4A106851681EAB03C3394B27
S12360C018689A889B798DF86E30374B1A9018689B88ADF86430354BADF86C2018909A8860
S12360E018689B798DF87630314B1393A3F59713A3F6EF63149323681C905907ADF8742017
S12361000FD5174B174E3846F61AF60802F0FAF8B60146F00406024626492748334618F0C2
S12361203AFCB8F1070F0AD142461EA938461AF098FF002842D1FFF7A9FE064636E7B8F133
S1236140030F3BD1424613A938461AF08AFF0646A0BBB12009F06EF828E700BF100C0020E7
S12361601C6D0200E46D02002DC6020002C10200D2BB02002AC10200DFBB02002004002027
S1236180AD9B0200A4C5020050C102008C3500206AC1020083C1020084350020E9BB020060
S12361A036B60200BB9E02008EAF020017C40200646675001BC60200A5C10200AC4E4FF4AF
S12361C08062394630461AF0CDFE15AA3046A94915961AF020FF23685A07064617D5A64BFF
S12361E0A64AA3EB020902F08DF81190159802F089F84FEAD9094FEA891949F00409034655
S1236200119A9F499F48ADF8009018F0DDFB30461AF0D6FE81461AA81AF0D2FE814540F03E
S1236220B5801AA81AF0CCFE1AA9024630461AF018FF002840F0AA802368159E5B070FD5E7
S12362408E4B8D4D3046ED1AED0802F05BF8AD0145F0040502468C498C482B4618F09BFBE4
S12362608449179617AA30461AF0D5FE884A05465168106826AB03C3864B18689A88209084
S12362809B79ADF8842028468DF886301AF098FE064626A81AF094FE864246D126A81AF0E7
S12362A08FFE26A9024628461AF0DBFE00283CD14FF480616E48FDF741F9B0F5806F0146CD
S12362C05DD923685D070BD06C4A6B4B72489B1ADB089B0143F001034FF4806218F05BFBA6
S12362E0384602F00FF86D4A03464FF48061604808F046FF5E496A480022FFF765FB2368BE
S123630059070ED05D4A5C4C5948A41AE40801F0F9FFA40144F0010401462246614818F07A
S123632023FB6FF015052E4640E628461AF048FE064620A81AF044FE8642D1D120A81AF0CE
S12363403FFE20A9024628461AF08BFE0028C7D14FF480614648FDF75BF8B0F5806F014656
S12363600DD923685807BBD0444A434B4E489B1ADB089B0143F001034FF48062AEE73C4962
S12363804A480022FFF720FB0025CCE730461AF017FE814618A81AF013FE814540F092801D
S12363A018A81AF00DFE18A9024630461AF059FE002840F087802368159E59070FD52F4BC9
S12363C02D4D3046ED1AED0801F09CFFAD0145F004050246364937482B4618F0DCFA254952
S12363E0179617AA30461AF016FE334B054618681B7926908DF89C302846304B20931AF00D
S1236400DFFD064626A81AF0DBFD86420ED028461AF0D6FD064620A81AF0D2FD864211D019
S1236420384601F06FFF264A03465EE726A81AF0C7FD26A9024628461AF013FE0028E6D162
S123644001240AE020A81AF0BBFD20A9024628461AF007FE0028E3D1044617980A220021EF
S12364601AF067FC01462046FDF7B2FF8CE700BFB15E002062CB0200E46D02001C6D0200EB
S12364801BC60200D4C10200B7C502000EC202008EA20200B3BB020036A202005DC2020091
S12364A0A5C2020073D1020059A1020045C20200D1C50200BCC2020051AE020061757800BD
S12364C0F2C2020030461AF07BFD81461CA81AF077FD814540F0AA801CA81AF071FD1CA9E0
S12364E0024630461AF0BDFD002840F09F802368159E5A070FD5AA4BAA4D3046ED1AED08BE
S123650001F000FFAD0145F004050246A649A7482B4618F040FAA649169616AA30461AF0E7
S12365207AFDA44B179305461AF04AFD064617A81AF046FD86421AD117A81AF041FD17A9D9
S1236540024628461AF08DFD88B9032120A8FCF7B7F990B123685B0709D09249904B964882
S1236560C91AC908890141F0010118F0EEF9384601F0C8FE914A0346B7E6072126A8FCF7D8
S12365809FF9054658B123685E07F0D08549844B8B48C91AC908890141F00101E5E720A8E6
S12365A0FFF762FC22A810EE104AFFF75DFC24A810EE106AFFF758FC26A810EE107AFFF738
S12365C053FC28A810EE108AFFF74EFC2AA810EE109AFFF749FC10EE100AFAF7F5FECDE959
S12365E00A014846FAF7F0FECDE908014046FAF7EBFECDE906013846FAF7E6FECDE9040135
S12366003046FAF7E1FECDE902012046FAF7DCFE6C4ACDE900016C484FF4806108F0B0FD5C
S123662069496A482A46FFF7CFF97CE630461AF0C7FC814614A81AF0C3FC814540F08A80D3
S123664014A81AF0BDFC14A9024630461AF009FD00287FD12368159E5D070FD5504B514DF5
S12366603046ED1AED0801F04DFEAD0145F004050246574957482B4618F08DF94C491696B5
S123668016AA30461AF0C7FC534B0546186820901B798DF8843028461AF092FC064620A8F3
S12366A01AF08EFC86421BD120A81AF089FC20A9024628461AF0D5FC054688B9474815F0BD
S12366C0E1F8064690B92368580709D03549344B4348C91AC908890141F0010118F035F956
S12366E0384601F00FFE3F4A0346FEE5179583680A221B6826A99847B36817A99B6830461D
S12367009847179B002BEBD05A690E921A690D929A890C92DA7A0B929A7A0A925A7A0992A8
S12367201A7A0892DA7907929A7906925A7905921A790492DA7803929A7802925A7801920B
S12367401B780093284A204826AB4FF4806108F017FD65E723685A073FF4E5AD104B114C7F
S12367603046E41AE40801F0CDFDA40144F00104014623461D48424618F00DF9D3E523682E
S12367805B073FF403AC064B06491948C91AC908890141F0010118F0D8F8FFF7F7BB00BF00
S12367A01C6D0200E46D0200EAC5020042C3020062CB02006765740079C302001EC40200AE
S12367C0A6C30200CFC30200B15E002006C4020004C6020059C40200FDB502009BB40200CB
S12367E08DC4020022C50200B3C402005EC502008BC5020008B5084B1B685B070AD5074A44
S1236800074B08490848D21AD208920142F0040218F0AAF8002008BD1C0C0020FC6D0200AE
S12368201C6D0200CDC6020040C6020010B507F0F9FB044630B90449044B486004488B60CE
S12368401FF097F9204610BDA0350020F5670000784500202DE9F04F064687B00D461746AC
S1236860836804AA5B680F219847039080BBDDE9044BA5FB048905FB0B99184A00234046EA
S12368804946FBF77BF9164B4FF0FF324B4508BF424582461FD3A7FB044507FB0B550F4AF0
S12368A0002320462946FBF769F90D4A4FF0FF31AA4208BFA14203460DD3B26803990091BC
S12368C014680F2152463046A04707B0BDE8F08F6FF00400F9E76FF02200F6E740420F0006
S12368E03F420F0038B51248124D14F0CBFF28601148124C14F0C6FF034620602868A0B1DE
S12369009BB1C56883684FF4D0521B681021984768B92B6823F480332B6002464FF47A61A8
S12369202068BDE83840FFF795BF4FF0FF3038BD9EAE0200AC350020DDC60200B035002008
S1236940F0B52B4B2B4F1A682B4D2DED028B0C4683B002F00702014600B1CCB9022A09D9F2
S12369602649274B2748C91AC908890141F0030117F0EBFF0021386817F0C2F80022114664
S12369802868FFF767FF002003B0BDEC028BF0BD1D4BB3FBF0F307EE903AB8EEE78A022A56
S12369A0FCEEC87A17EE906A0ED9154A134B17489B1ADB089B0143F00303ADF8003017EE5E
S12369C0902A234618F000F80121386817F098F807EE904AF8EE677ADFED0D6A67EE887A07
S12369E0314687EEA67AFCEEC77A17EE902AC7E7340C0020AC350020B03500202C6E0200ED
S1236A001C6D0200E3C6020040420F00F8C602000000C8420129F8B505460F46164605D831
S1236A20284618F06BFC6FF01500F8BD50681AF05AF9041E10DD022FF2D0B0681AF053F9C7
S1236A40002C01460BDD642809D9B368064A0221284618F030FCE3E7022FEED100212046F8
S1236A60BDE8F840FFF76CBF2AC7020008B50C4B02221A700B4B1B685B070AD50A490B4B9C
S1236A800B485B1ADB089B010A4943F0040317F082FF094B186817F042F8002008BD00BFDD
S1236AA0790A0020540C00201C6D02006C6E020091C702006FCA02001436002008B50C4B35
S1236AC005221A700B4B1B685B070AD50A490B4B0B485B1ADB089B010A4943F0040317F063
S1236AE05AFF094B186817F01AF8002008BD00BF790A0020540C00201C6D02006C6E02001E
S1236B00DDC7020054CA02001436002008B50B4B04221A700A4B1B685B0709D509490A4BBF
S1236B200A485B1ADB089B010949134317F033FF084B186816F0F3FF002008BD780A0020D8
S1236B40540C00201C6D02006C6E02002DC8020090CA02001436002008B50C4B03221A70CA
S1236B600B4B1B685B070AD50A490B4B0B485B1AD3409B010A4943F0040317F00CFF094BE4
S1236B80186816F0CCFF002008BD00BF780A0020540C00201C6D02006C6E020073C8020036
S1236BA03BCA020014360020124B1B7810B5EBB1E1B1114B0C681B685A070BD50F4A104B35
S1236BC0104911489B1ADB089B0143F00403224617F0E1FEA4F164035C425C410B4B1C702A
S1236BE00B4B186816F09BFF002010BD6FF01500FBE700BFB1620020540C00201C6D0200DB
S1236C006C6E020026CA0200BAC80200780A00201436002010B519B3134A144C12680978C9
S1236C20217053070FD5124A124B13489B1ADB08124A9B01002908BF024643F00403104912
S1236C40104817F0A8FE2378002B0F4B14BF002202221A700D4B186816F061FF002010BD3D
S1236C606FF01500FBE700BF540C0020B16200201C6D02006C6E0200E9C80200D1AE0200AD
S1236C8011CA0200EDC80200780A00201436002008B51649164B0A781B68042A03F00403A6
S1236CA014D8022A14D902220A7053B11149124B12485B1ADB089B01114943F0040317F089
S1236CC06AFE104B186816F02AFF0DE0062AEAD053B10849084B09485B1ADB089B01084929
S1236CE043F0040317F057FE002008BD780A0020540C00201C6D02006C6E020010C90200B1
S1236D00A8CA02001436002013B50B4B01910446187878B1094814F0B5FD48B1022C07DCCD
S1236D208368019A1B68214602B0BDE8104018476FF0150002B010BDB262002041C90200A6
S1236D4002292DE9F0410546144620D99068DFF8508019F0C8FF0027064658F8041B606806
S1236D601AF03EF958B10137032FF6D163680A4A09E0F1B23846BDE8F041FFF7C5BFFF2EEE
S1236D80F7D9A368054A0221284618F094FA6FF01500BDE8F08100BF7EC902004CC90200F5
S1236DA04488020038B5134C134D2378052B0CD8DFE803F01503121D1D1500210120FFF73B
S1236DC0A3FFFF210020FFF79FFF4FF0FF314FF0FF3015F0C9FCE8E72B78052B05D1FF21FA
S1236DE00120FFF791FF0021ECE70021F8E7FF210120E8E7780A0020790A002070B588B042
S1236E002F4814F03FFD002857D083685B6898472C4B01221A70002500220023CDE906236E
S1236E2000240523CDE90334CDE90144264B274900944FF48062264815F010FE254B186017
S1236E402549264E15F058FD2549264B26484C608B601EF08EFE2549254B26484C608B6091
S1236E601EF087FE2449254B25484C608B601EF080FE2449244B25488B604C601EF079FEA9
S1236E80234924484C608E601EF073FE22492348C1E901461EF06DFE2149224B22484C60D0
S1236EA08B601EF066FE2149214B22484C608B601EF05FFE284608B070BD6FF01505ABE7D1
S1236EC041C90200B2620020A56D000080A70020701C002014360020BBC90200916C00007C
S1236EE0C0350020156C00008C350020B4350020A96B000084350020E4350020596B000024
