:020000040000FA
:10000000A050002059210000DD650000892100007A
:1000100089210000892100008921000000000000E2
:10002000000000000000000000000000551F00005C
:100030008921000000000000011F00000B65000086
:1000400019210000192100001921000019210000C8
:1000500019210000192100001921000019210000B8
:1000600019210000192100001921000019210000A8
:100070001921000019210000192100001921000098
:100080001921000019210000192100001921000088
:100090001921000019210000192100001921000078
:1000A0001921000019210000192100001921000068
:1000B0001921000019210000192100001921000058
:1000C0001921000019210000192100001921000048
:1000D0001921000019210000192100001921000038
:1000E0001921000019210000192100001921000028
:1000F0001921000019210000192100001921000018
:1001000053B94AB9002908BF00281CBF4FF0FF317E
:100110004FF0FF3000F06EB9ADF1080C6DE904CE80
:1001200000F006F8DDF804E0DDE9022304B07047D2
:100130002DE9F047089D0E4604468C46002B40F002
:1001400081808A42174645D9B2FA82F24AB1C2F199
:10015000200106FA02F320FA01F1974041EA030C6C
:1001600094404FEA174E230CBCFBFEF6B9B20EFBCF
:1001700016CC43EA0C4306FB01F0984209D9FB1860
:1001800006F1FF3C80F01581984240F21281023E58
:100190003B441B1AA4B2B3FBFEF00EFB103344EA3F
:1001A000034400FB01F1A14209D93C1900F1FF33DE
:1001B00080F00181A14240F2FE8002383C44641A82
:1001C00040EA064000211DB1D4400023C5E90043A8
:1001D000BDE8F08702B9FFDEB2FA82F2002A4FD101
:1001E000CB1B4FEA174E1FFA87F80121B3FBFEFC29
:1001F000260C0EFB1C3346EA034608FB0CF3B34205
:1002000007D9BE190CF1FF3002D2B34200F2EB80E5
:100210008446F61AA3B2B6FBFEF00EFB106643EA64
:10022000064408FB00F8A04507D93C1900F1FF334C
:1002300002D2A04500F2D2801846A4EB080440EA9E
:100240000C40C0E78B4208D9002D00F0AF800021A0
:10025000C5E900060846BDE8F087B3FA83F1002936
:1002600049D1B34202D3824200F2BB80841A66EBCA
:10027000030301209C46002DAAD0C5E9004CA7E746
:10028000C2F120039740D8409140DE404FEA174E1C
:1002900008434FEA104CB6FBFEF11FFA87F80EFB3D
:1002A00011664CEA064601FB08F3B34204FA02F475
:1002B00009D9BE1901F1FF3C80F08E80B34240F2B3
:1002C0008B8002393E44F31A86B2B3FBFEF00EFB7C
:1002D000103346EA034600FB08F3B34207D9BE19C0
:1002E00000F1FF3C74D2B34272D902383E44F31A93
:1002F00040EA01417AE7C1F1200703FA01F422FA4A
:1003000007F31C4320FA07F906FA01F34FEA144CED
:10031000FE4049EA03094FEA1943B6FBFCFE1FFA07
:1003200084F80CFB1E6643EA06460EFB08FAB2454B
:1003300002FA01F200FA01F308D9A6190EF1FF3012
:1003400048D2B24546D9AEF1020E2644A6EB0A06C3
:100350001FFA89F9B6FBFCF00CFB106649EA064669
:1003600000FB08F8B04507D9A61900F1FF3C2DD2D3
:10037000B0452BD90238264440EA0E40A6EB0806C9
:10038000A0FB02894E45C446CE4618D315D075B39E
:10039000B3EB0C0266EB0E0606FA07F722FA01F33E
:1003A000CE401F43C5E90076002111E729462846C3
:1003B0000EE76646EDE6184601E74345E7D2B8EB9F
:1003C000020C69EB04040138A646E0E76046D3E777
:1003D00060468CE78646B9E7614674E702383C44DC
:1003E0002BE7084647E7ACF1020C3E4411E72946EB
:1003F000EEE600BF704700BF00B585B0002307E000
:1004000003F5C0711A4A1B4842F821000133DBB2E0
:10041000072BF5D94921184805F077FB00F05AF869
:10042000164800F039F858B101A800F0A7FC144AAA
:10043000126882420AD04521124805F066FBFEE7A9
:100440000E4A4521104805F060FBFEE7039A49215A
:100450000E4805F05AFB49210D4805F056FB01A84E
:1004600004F0C7FE45210B4805F04FFBFEE700BF37
:10047000000001403546526E788A0000948A0000E0
:100480005C190020C88A0000A88A0000EC8A0000DD
:100490001C8B0000448B000008B5054B1B6813B192
:1004A000034B186808BD04F079F8014B1860F7E7B2
:1004B0005801002010B900200860704708B50246B6
:1004C00000234521024805F020FB6FF0150008BD10
:1004D000688B000008B54FF4C051024803F0FAF9E8
:1004E00008BD00BF5C01002070B5A4B0202928D849
:1004F00006460D460024144B1B68A3421CDD09A8C8
:1005000007F0D4FD002109A803F012FB0F4B03EB09
:10051000C4025268126853F8341009A807F0CCFDE1
:1005200001A909A807F00BFE2A46314601A806F0EA
:10053000C3F818B10134DEE74FF0FF34204624B091
:1005400070BD4FF0FF34F9E7908B0000948B0000F2
:100550002DE9F041D6B015461F465A4CD4F800801C
:100560005F9C04945E9C039406AC02945D9C019491
:100570005C9C009404F065FE0446002840F08580F1
:10058000609B23B1202206A9184606F0ACF8002390
:1005900000934FF6FF733A4629464EA804F090FEAA
:1005A0000446002871D145464FF0FF361CE04FF05D
:1005B000FF3619E04FF0FF3616E0BDF85231202B20
:1005C00077D10EAA5599384605F01BFE044600283F
:1005D00061D120220EA906A804F0F3FF05463A4B8C
:1005E0001B68834259D1012454AB0DF5A97255A95A
:1005F0004EA804F0CAFE002845DB37DCBDF85021C8
:10060000102ADAD0012A20D0202AEDD1002ECEDB0C
:100610002E4B1B68B342CDDDBDF85231B3F5807F60
:100620004DD10EAA5599384605F0EBFD002839D179
:10063000F6B20096BDF852310EAA202106A800F0AD
:10064000B7F880464FF0FF36CEE7BDF85231202B89
:1006500032D80EAA5599384605F0D3FDF8B99DF861
:1006600052110EA8FFF740FF0646BDE7002C0CBF55
:100670000124002419D0144B1B68434517D0114B9B
:10068000D3F8008001E0A846044604B94446204659
:1006900056B0BDE8F081A846F7E78046F5E7A846E2
:1006A0000446F2E7A8460446EFE7A846EDE7984679
:1006B000EBE74FF0FF34EAE74FF0FF34E7E74FF0A6
:1006C000FF34E4E7000000205C190020908B00005C
:1006D00070B5ADF51C7D0E4619464368B3F5807FB5
:1006E0004FD1202A50D141AA03F0E0F90546002855
:1006F0004DD19DF80332BC2B4CD10DF2E31109A86A
:1007000004F0F1FE2B46DE2B07DC41AAD25C09A8DF
:10071000C45C6240C2540133F5E79DF8243003F015
:100720007F038DF82430BD2D05DC09AB5B5D002B0C
:1007300033D10135F7E79DF8E230012B32D181A8A2
:1007400007F0B4FC002181A803F0F2F90822174950
:1007500081A807F0B1FC2022314681A807F0ACFC4B
:1007600020220DF1E30181A807F0A6FC01A981A8D0
:1007700007F0E5FC20220DF2E31101A804F021FFAF
:100780000DE04FF0FF300AE04FF0FF3007E04FF090
:10079000FF3004E04FF0FF3001E04FF0FF300DF587
:1007A0001C7D70BD4FF0FF30F9E700BF9C8B00004F
:1007B0002DE9F047ACB006460F4690461D469DF821
:1007C000D0A0154BD3F800900022114601A807F0E5
:1007D00027FC124C54F83A30009304EBCA046268C8
:1007E00012681A44694601A804F02BFE10B9029B56
:1007F000AB4209D001A807F021FC01A807F01EFCBC
:1008000048462CB0BDE8F08743463A46314601A839
:10081000FFF75EFF8146F0E700000020948B0000A8
:1008200070B586B00D460123ADF80430002407E012
:10083000286805F0E5FC23E0286805F0E1FC0134B8
:10084000012C1BD8294606AB234413F8140C01F0E5
:100850002FF80646A0B928688168102302AA10392B
:1008600005F0CFFC06460028E2D11022064902A876
:1008700005F022FF06460028DED101E04FF0FF36EA
:10088000304606B070BD00BFA897000002680E4B4E
:100890009A420DD1C2680389D84382420CD810B461
:1008A000D418012010B18B68A34203D910BC704743
:1008B000002070470020F9E7002010B18B68A342A8
:1008C00000D97047002070473DB8F39600B587B057
:1008D000134600200490039002904FF4807201921E
:1008E000044A00920A460146FFF732FE07B05DF85F
:1008F00004FB00BFC02500202DE9F04182B0054671
:100900000C461746234B1E68002004F090FC01A9FA
:10091000C0B200F0CDFF18B1304602B0BDE8F081A2
:100920002C2000FB04582146284604F0F8FE20B194
:10093000D8F8103013F0100F0AD024B9012601980E
:1009400005F05EFCE8E70199284604F0D4FFF5E7DE
:100950003B46019A41462846FFF7B8FF0646019DEF
:1009600029464046FFF792FF18B10B4B1B68B34274
:10097000E5D03CB964B9094A4521094805F0C5F8F4
:100980000126DCE7AA680021284605F089FCF1E78A
:10099000044AF1E7000000205C190020B08B000041
:1009A000B88B0000A48B000070B505460E460020F1
:1009B00003F042FD0446022805D0042803D0032892
:1009C00001D0204670BD324601212846FFF794FF32
:1009D000044B1B688342F4D0012801D00524F0E7C2
:1009E0000446EEE75C19002030B583B005460C469E
:1009F000002300930193084604F014FF30B32A68E3
:100A0000194B9A4216D0EA6A174B9A4218D0019BAA
:100A1000009A934200D90093009BA360009A21465C
:100A2000284600F019FC114B1A68002A16DC002039
:100A300003B030BD6A460021284604F019FEE2E703
:100A400001AA0121284604F013FEE0E704F10801A1
:100A5000002004F0D7FDA3680093DFE75721044886
:100A600005F053F8E3E700BF3DB8F396C026002039
:100A7000E08B000038B504460D46FFF7B5FF02468F
:100A8000EB7984F85830033BDBB2012B0CD9EB79BE
:100A9000022B13D0042B11D0032B0FD094F8583015
:100AA000FF2B15D0104638BD002004F0CFFF0246C2
:100AB0000028ECD0FF2384F85830E8E7002004F049
:100AC000B2FF02460028E9D0FF2384F85830E5E75A
:100AD0004521024805F019F8FEE700BF108C000020
:100AE00038B504460D4604F062FE68B9002211468E
:100AF000204604F072FE80B9204600F0B7FAA8B98B
:100B0000012384F8583007E080225721304804F050
:100B1000FCFF012384F8583038BD002257212D48AE
:100B200004F0F3FF012384F85830F5E7284604F079
:100B30006FFE2946204604F038FFF0B9284604F03D
:100B400071FE80F001012A46C9B2204604F045FE3C
:100B5000E0B9284604F066FE08B3EB79012B2BD0F0
:100B60002A4601212046FFF7C7FE1B4B1B68834224
:100B700029D0052384F85830CEE7002257211748A2
:100B800004F0C3FF012384F85830C5E70022572141
:100B9000104804F0BAFF012384F85830BCE7294616
:100BA0002046FFF767FF2A460021204604F015FE85
:100BB000012384F85830AFE729462046FFF7F4FEBA
:100BC00084F85800A8E7EB7984F85830A4E700BF10
:100BD0001C8C0000608C00005C1900208C8C0000D4
:100BE0002DE9F84F0F4690461E46DDF828900B9DE4
:100BF000002409E000F5C072144B154943F8221097
:100C00000130C0B20728F5D9AC4217D2A5EB040ACF
:100C1000BAF5806F01D94FF4806A53460D4AA11985
:100C2000384605F0EEFA60B953460A4A04EB09016A
:100C3000404605F005FB30B95444E3E70020BDE829
:100C4000F88F0120FBE70120F9E700BF0000014019
:100C50003546526EC01900202DE9F04184B004469B
:100C60000F46414B1E686022002105F060FD3F4B9E
:100C700063623F4B23654FF0FF354FF000080EE0F5
:100C80004146002004F0D3FA2C2101FB08F1203169
:100C90002144C0B200F00CFE054608F10108B8F18D
:100CA000010FEDD969462046FFF71AFF94F8583036
:100CB0008DF80730042B1CD8022B26D2012B2AD109
:100CC00094F85830FF2B2AD0012B06D06A46002119
:100CD000204604F082FD054648B900221146204610
:100CE000FFF70AFE0646234B1B6883421CD00027F1
:100CF00032E0052B0FD1002004F0A8FE05460028A5
:100D0000DED0FF2384F85830DAE76946204604F045
:100D10009AFD0546D4E7FF2384F85830D0E74521F3
:100D2000154804F0F2FEFEE710220021684605F0A7
:100D3000FEFC236A5B783B71236A5B68BB603C60A6
:100D40000C4B1E68D3E7C7F101032C2202FB0343BF
:100D5000186A05F055FA0137012FF4D905B935465F
:100D6000284604B0BDE8F08100000020C01D00202E
:100D7000C02100205C190020108C000008B501463D
:100D80000148FFF769FF08BD601900202DE9F04315
:100D900083B00F4615461C46DDF82880536A53F889
:100DA00030601A68B61A013853F83030A3EB0209E4
:100DB0002368012B1BD03A463146404604F097FD8C
:100DC000019700964B46424641462846FFF708FFEA
:100DD0002146284604F058FD23680133236018B1EA
:100DE0000C4A13680133136003B0BDE8F083E36875
:100DF000022B04D10B99284604F07DFDDBE7414628
:100E0000284604F078FD22464146284604F0ABFD12
:100E1000F0E700BFC02600202DE9F04383B00E4666
:100E200015461C46526A52F830101368A1EB0308AD
:100E3000013852F83070FF1A2A6D52F830101368DA
:100E4000A1EB03092379012B05D02379022B1CD0B8
:100E500003B0BDE8F083324639460A9804F047FDF6
:100E6000019600974B460A9A0B992846FFF7B8FE61
:100E70002146284604F008FD022323710028E4D00F
:100E8000114A136801331360DFE7324649460B9875
:100E900004F02DFD0196CDF8009043460B9A0A9977
:100EA0002846FFF79DFE2146284604F0EDFC236806
:100EB00001332360012323710028C9D0024A13683B
:100EC00001331360C4E700BFC026002070B582B0B4
:100ED00015461E46002B36D0436A5C687379012B99
:100EE00011D0022B17D00024002004F0A0F901A992
:100EF000C0B200F0DDFC68B30124019805F080F970
:100F0000204602B070BD01BB32681C4B1B689A4280
:100F1000EAD80024E8E73368012B07D9174A12689A
:100F2000934203D899B900240121DDE7012B01D0B8
:100F30000024D9E701B100240129D5D13379022B4E
:100F4000D2D10021D0E70024CEE70024CCE7002452
:100F50002146C9E720232A462146019805F051F988
:100F6000044640B9002EC8D02A68054B9A42C4D026
:100F70004FF0FF34C1E70124BFE700BF04000020A9
:100F80003DB8F3962DE9F04F85B007460C46019227
:100F90000146002004F022FB051E5CDBE36D00939C
:100FA000384604F026FB81464FF0000B4FF0010855
:100FB0004FF0FF3A03E00BF1010B2546B046002D40
:100FC0001BDD6C1E9DF8001001230DF10F0204FBC8
:100FD0000191384605F015F9061E3EDB01220DF1A0
:100FE0000F01384607F09EF910B1B045E3D1E4E7B0
:100FF000BAF1FF3FE1D1AA46DFE7BBF1010F0EDCFA
:10100000BAF1FF3F2DD0BAF17F0F0DDC012301991A
:101010004B710AEB03020A600B7100201EE04521B0
:10102000114804F072FDEBE70223019A5371AAF113
:10103000800A0AEBDA735B1001331360BAF1000F18
:101040000AF0010AB8BFCAF1000A0AF1010A82F8DF
:1010500004A0002002E0072000E0012005B0BDE868
:10106000F08F0020FAE700BFB88C000038B5856A21
:10107000446DA54202D0631CAB4211D1802D15D81E
:1010800000231946A3421DD2426A02EBC3025168F3
:10109000026D02EBC302526891420DD10133F1E7B8
:1010A0005721114804F031FD00200AE057210F4874
:1010B00004F02BFD002004E057210D4804F025FD2D
:1010C000002038BDA5420DD9426A02EBC3035B681C
:1010D000994201D10120F4E75721054804F015FD9C
:1010E0000020EEE70120ECE7DC8C0000148D00000E
:1010F000448D000000B589B006A9012007F09FF9D2
:101100009DF81830012B3BD0032B37D0244B9DF892
:1011100019209DF81A109DF81B0002900191009271
:10112000204A4921204804F0F0FC04A9022007F0DD
:1011300086F99DF81030012B26D0032B22D0184BB6
:101140009DF811209DF812109DF813000290019156
:101150000092164A4921144804F0D7FC9DF8183033
:10116000012B03D19DF81A30032B0FD049211048D1
:1011700004F0CBFC002009B05DF804FB0D4BC6E782
:101180000D4BC4E70B4BDBE70B4BD9E79DF8103059
:10119000012BEBD04921094804F0B7FC0220EAE713
:1011A000708D0000848D0000948D0000D88D0000AB
:1011B000088E00007C8D0000748D0000E88D00001A
:1011C000F0B587B00C46496801F0FF211C4DA942DB
:1011D00004D1064617462268012A01D007B0F0BDA7
:1011E00004A9184607F02BF99DF81030012B25D0E3
:1011F000032B21D0134B9DF811209DF812109DF860
:1012000013000290019100920F4A49210F4804F007
:101210007CFC9DF81030032BE0D13946304604F0B9
:101220006AFB384607F0B1F8A168384604F00BFABB
:10123000384603F0F3F8D1E7054BDCE7054BDAE776
:1012400000010004708D0000D88D0000948D000016
:101250007C8D0000748D0000F0B585B007460D460A
:101260000024374B1C60436A5E68344434490B6881
:1012700001330B609442F8D3284604F0D3FA70B1DE
:10128000F86D04F0A6F9BA6A013A00233344984293
:1012900001D9013AFAE72A4B1B68934214D203A9F9
:1012A000012000F005FB02A9022000F001FB02234F
:1012B000029A29463846FFF783FF6B79012B0AD043
:1012C00002236B7101242BE057211E4804F01DFC02
:1012D0000123EB7132E01A4B1C680AE0029B019378
:1012E000039B00932B463A4631462046FFF74EFDBE
:1012F000013C3CB12A68124B1B689B1A01339C428B
:10130000F6D8EBE701232B60DAE7029B0193039BFE
:1013100000932B463A4631462046FFF77DFD0134C7
:10132000074B1B689C4203D82B689C42F7D3ECE721
:10133000039804F065FF029804F062FF05B0F0BD69
:1013400004000020208E000008B50B6801330B60FC
:10135000014B1B68984708BD0800002000B583B00A
:1013600002460B460021019101A9034800F0B2F8A2
:1013700003B05DF804FB00BF491300002DE9F04302
:1013800083B0044608461546238B13F0080F05D199
:1013900003F0070600230093019369E0012909D0B7
:1013A00043F02003238385F31188BFF36F8F03B0CD
:1013B000BDE8F08343F010032383F4E7204604F0F4
:1013C000D9FB57E0D4F814904A466946204604F009
:1013D000EAFB00275AE023691F680621204604F033
:1013E000A2FB4FF0000951E023695F680421204609
:1013F00004F099FB4FF0000948E023699F6805213C
:10140000204604F090FB4FF000093FE0002246E048
:10141000002244E043F00803238385F31188BFF3DF
:101420006F8F002944D1009B2BB14B464246694641
:10143000204604F02EFC17B125492046B8474FF04E
:101440002003EFF3118583F31188BFF36F8F238B94
:1014500023F008032383238B13F0100F2ED023F0E7
:10146000100323830120268B06F0070600289AD05C
:101470000228A3D0002896D00128A3D00328AAD000
:101480000428B1D00528B8D00027B946238B03F033
:101490000708B045BAD0A268002AB9D00122114687
:1014A000002AB7D1009A002AB4D1002FB2D1D2E7D6
:1014B0004A464146204604F03EFBB4E713F0200FB5
:1014C00004D023F0200323830220CCE70020CAE7C6
:1014D000C15C00002DE9F04F8BB006460D46144666
:1014E0000793002309939A464FF0FF379B4698468F
:1014F00005E02946B047099B013309930134207860
:10150000002800F0B481B8F1000F09D12528F0D1EE
:101510004FF0000A4FF0FF37D3464FF00108EDE7D8
:101520000246A0F12503552B00F28981DFE813F074
:101530007E01870187018701870187018701870174
:1015400096018701870156005C005C005C005C002E
:101550005C005C005C005C005C0087018701870127
:10156000870187018701870187018701870187013B
:10157000870187018701870187018701870187012B
:10158000870187018701870187018701870187011B
:10159000870187018701F2008701870187018701A1
:1015A00087018701870187018701870172018D000B
:1015B0008701870187016C008D00870187016C001E
:1015C000870187018701F2008701870147018701B1
:1015D0008D0087018701F20087016C00002F03DA7C
:1015E000BBF1000F00F03D81002F0BDB07EB8707FD
:1015F00002EB4707303FBBF1000F7FF47FAF4FF0A6
:10160000020B7BE70027F1E7682813D06C2817D07E
:10161000BAF1000F12D029462520B047099B0133AB
:10162000099329462078B047099B013309934FF06D
:10163000000863E7BAF1680FE8D1482082465DE709
:10164000BAF16C0FE4D14C20F8E7BAF17A0F0FD061
:10165000BAF16C0F34D0BAF14C0F39D0752851D093
:10166000079B1A1D07921B6898464FEAE37906E02C
:10167000079B1A1D07921B6898464FEAE379237867
:10168000752B0FD04046494604F054FD50B1294611
:101690002D20B047099B01330993D8F1000869EB6D
:1016A0004909013F09AB02930197CDF800B04246CA
:1016B0004B462946304604F023FD4FF000081DE755
:1016C000079B1A1D07921B6898464FEAE379D6E7F5
:1016D000079B073323F0070303F1080207921A68F8
:1016E000596809AB0093049206910B46294630468F
:1016F00004F01EFD002800F0B780DDF81080DDF852
:101700001890BCE7079B1A1D07921B6898464FF07C
:101710000009B4E770281BD0BAF16C0F3AD0BAF1C7
:101720004C0F40D0079B1A1D07921B6819460022D8
:10173000CDE9041209AB02930197CDF800B0DDE9C1
:1017400004232946304604F0C3FC4FF00008D5E6D8
:10175000079B1A1D07921B6819460022CDE9041247
:1017600093B9DFF81481294698F80000B047099B27
:101770000133099318F8013F002BF4D1DDE904236C
:10178000134304D0023FD5E7DFF8F080EBE7A7F181
:1017900005082AE0079B1A1D07921B6819460022BC
:1017A000CDE90412C6E7079B073323F0070303F1D3
:1017B00008020792D3E90023CDE90423BAE7079B87
:1017C0001A1D0792D3F80090C84606E008F10108F8
:1017D0002946B047099B0133099398F80000002877
:1017E000F4D1A8EB0908A7EB0808BBF1030F09D057
:1017F0004FF0000882E629462020B047099B0133BC
:101800000993C84608F1FF39B8F1000FF3DC4FF037
:10181000000873E6079B1A1D079229461868B0470F
:10182000099B013309934FF0000867E629462520FC
:10183000B047099B013309934FF000085EE6294643
:101840002520B047099B0133099329462078B047EA
:10185000099B013309934FF000084FE64FF0030B4B
:101860004CE64FF0010B49E64FF0000846E60998B8
:101870000BB0BDE8F08F00BF688F0000648F0000E0
:1018800010B404460023084A12689A4209DD1A017E
:101890000649096801EB03108A5CA24202D00133B9
:1018A000F1E7002010BC7047B08F00000C00002052
:1018B000084B1B683BB110B50C46FFF7E1FF28B1A0
:1018C0002060002010BD6FF00C0070476FF0010029
:1018D000F8E700BF0C00002000B58BB003AB00930D
:1018E000024B04F066FC0BB05DF804FB776100006E
:1018F00038B5134B1B6803B138BD114B01221A6078
:101900004FF02003EFF3118583F31188BFF36F8F3E
:101910000C4B1C6802E00CB124683CB134B1A368E4
:10192000002BF8D0084A10789847F4E785F311881F
:10193000BFF36F8F044B93E8030004F019FFDBE75C
:1019400010000020C4260020CC260020004870474C
:1019500024270020034BC01A8010034B03FB00F028
:10196000704700BFE4260020B76DDBB638B50546EA
:101970000C46FFF7EFFF01464022034804F049FD03
:1019800001462846A04738BD3000002030B583B05E
:1019900005460C46FFF7DEFF014640230093234631
:1019A000054A064804F04FFD011E01DB03B030BDBF
:1019B0002846A047FAE700BF9564000030000020E9
:1019C00010B54FF02003EFF3118483F31188BFF3B8
:1019D0006F8F134A136843F00203136013F0010F73
:1019E00008D1002384F31188BFF36F8F9BB904F0F3
:1019F00059FD10BD4FF08043D3F80C24D3F80C34BC
:101A000012F0010F01D10023ECE7FFF79FFF04F074
:101A1000DBFC0123E6E70021024804F0E8FCE8E7EC
:101A2000342700203000002008B50A4BBFF35B8F3D
:101A300053E8002F22F0020143E800100028F7D1FC
:101A4000BFF35B8F12F0010F00D008BD04F034FD2E
:101A5000FBE700BF3427002070B5054600220121B6
:101A6000104600F0A5FA002000F084FA134801F0B7
:101A7000A5FB134B98421DD1E86800F017F904F05C
:101A800054FF002403E00123B3601C44E4B2012CA2
:101A90000ED82146284604F043FC06462146284637
:101AA00004F04BFC074904F019F90028EBDA00E0D8
:101AB000002070BD6FF00400FBE700BFC91A0000F2
:101AC0000000AD0B1090000008B5012810D00328CD
:101AD00015D000B108BD00210A4804F021FC83683C
:101AE00013F0070FF6D10021064804F080FCF1E75F
:101AF00004F007FD0121034804F079FCEAE700F057
:101B0000EBF8E7E73000002070B5054606F016FE5A
:101B100020B9214B1B789BB1002300E001231C4618
:101B200083B14FF02003EFF3118683F31188BFF3E5
:101B30006F8F6CB94FF080430222C3F8082307E08F
:101B40000123ECE70026F4E7CCB1304600F08CFA34
:101B50004FF08042D2F8183403F00303D2F818246F
:101B600012F4803F10D10022002AEDD00BB1012DDC
:101B7000EAD15CB186F31188BFF36F8F70BD21206D
:101B8000002103F0D3F8E3E70122EDE74FF08043B3
:101B90000222C3F80423F1E79328002008B5C1B25C
:101BA000014804F0CAFB08BD3000002010B504460F
:101BB000104B0121BFF35B8F53E8002F43E8001067
:101BC0000028F9D1BFF35B8F1AB1631E012B0CD92A
:101BD00010BD094804F0B1FB084900234B60CB60FD
:101BE00001238B6004F096F8EFE72046FFF78CFFA7
:101BF000EEE700BF3827002030000020D426002068
:101C000008B5034B02221A6001F092FB08BD00BF29
:101C1000340C004008B5034A0349044B186804F02B
:101C20005BFC08BDD1640000402700205027002045
:101C300008B5094B0122BFF35B8F53E8001F002951
:101C400003D143E800200028F7D1BFF35B8F01D117
:101C5000FFF7E0FF08BD00BF3C27002008B50248A1
:101C600002F09CFC002008BD1C90000008B5024B4F
:101C7000186804F042FC08BD5027002000B583B06E
:101C800000220023CDE900234FF400320023054851
:101C900003F032FAFFF7EAFF034B00221A6003B0A9
:101CA0005DF804FB980000203C270020034B1860DF
:101CB0000023034A1360034A136070475027002033
:101CC000542700205827002008B5024806F099FD47
:101CD00008BD00BF9800002008B5034A136801330F
:101CE0001360FFF7CBFF08BD5427002021F07F4190
:101CF00000F5A870014B43F8201070470010014018
:101D000000F5A870014B53F8200070470010014007
:101D10004FF480338340024AC2F84433704700BF17
:101D2000001001404FF480338340024AC2F8483328
:101D3000704700BF00100140014BD3F80405704705
:101D40000010014038B5002404B138BD4FF4803391
:101D5000A340144AD2F80423134209D004F15003DB
:101D60009B009BB203F1804303F588331B680BB9DA
:101D70000134E9E7204604F0CFFB2046FFF7D2FF0D
:101D80002046FFF7BDFF0146074B53F834500022B1
:101D900043F83420002DEBD003EBC4035A682046EF
:101DA000A847E5E7001001405C27002038B5044C47
:101DB00044F8302004EBC004636004F0B9FB38BD84
:101DC0005C27002038B50846044D2C68214604F0F5
:101DD0009FFB04442C6003F007F938BD68270020FE
:101DE00008B50023124AC2F80835C3B1114B4FF4AD
:101DF0000032C3F8802100220121112000F0D8F820
:101E0000112000F0B7F801230B4A1360083A136061
:101E10000A4A13600220FFF7C9FE002008BD4FF4F4
:101E200080329A400249C1F804230133DDE700BF44
:101E30000010014000E100E008100140642700208C
:101E400038B5B0F1FF3F07D0441E002C07DD104B22
:101E50009C4205DD0F4C03E000F50000F4E7002490
:101E6000FFF76AFF0C4B1D68294604F051FBB0F5E3
:101E7000000F00D3002421180131B1F5000F00D369
:101E800004490023054A29441846FFF78FFF38BD4F
:101E9000FEFF7F00FFFF7F0068270020C51D0000B8
:101EA00010B54FF02003EFF3118483F31188BFF3D3
:101EB0006F8FFFF741FF044B196804F029FB84F38F
:101EC0001188BFF36F8F10BD68270020094A9368FF
:101ED000986709490968D96708494B6843F08053F6
:101EE0004B60002383F31188BFF36F8F9368D86F23
:101EF000704700BF5C280020E097000000ED00E084
:101F000012498A684FF038001044EFF3098C80E8DA
:101F1000F01F202080F31188BFF36F8F0C4F4FF01C
:101F200000664A6A8A603E60906F0023936780F380
:101F3000118804B5104600F08DFBBDE8044002F1A5
:101F4000380090E8F01F8CF3098870475C28002067
:101F500004ED00E01EF0040F0CBFEFF30880EFF378
:101F60000980816911F8021C0229FFD001B504F033
:101F70002FFB01BD43B2002B08DB00F01F005B0903
:101F8000012202FA00F0024A42F82300704700BF23
:101F900000E100E04209054B53F8222000F01F0049
:101FA000012303FA00F01040704700BF00E100E099
:101FB000013143B2002B08DB4901C9B203F1604390
:101FC00003F5614383F80013704700F00F004901E7
:101FD000C9B2014B1954704714ED00E010F1160F0F
:101FE0000FD00D4B834206D82033834205D98B4254
:101FF00005D800210AE0002108E0002106E00121C7
:1020000004E0064B8B4294BF0021012109B9002056
:1020100070470248704700BFA0280020C028002059
:1020200080B504460F4616461D4604F0C1FA3846F0
:1020300031462A46084B202583F3098863B64FF0C2
:10204000000383F31188BFF36F8FA04785F31188D6
:10205000BFF36F8FFEE700BFC05000200149102280
:102060000A60704710ED00E072B6494081F31188B4
:1020700020BF80F3118862B6704700BF10B582B0F0
:102080000446836800934368026845210B4803F0C7
:102090003CFD636900932369E2684521084803F029
:1020A00034FDE2694521074803F02FFDA26945216F
:1020B000054803F02AFD02B010BD00BF30900000BB
:1020C0006490000098900000AC90000030BFFFF7D3
:1020D000FDBF00BF08B50E4B0E4A22F07F029A608A
:1020E000BFF34F8FBFF36F8FD3F8882022F47002B5
:1020F000C3F88820EFF3148323F0040383F31488D8
:1021000002F0FEFA02F0A4FE00F05AFA02F01CFB04
:1021100000ED00E00000000001B572B60B4A106A45
:1021200000281EBF0021116202F0DEFA62B6EFF352
:102130000580A0F110004FEAC0000549014409C91B
:102140009847BDE801400349084700005C2800208B
:10215000A8880000BD25000004F006FB202080F3C5
:10216000118808484FF40261401880F30988EFF3A2
:1021700014800221084380F31488BFF36F8FFFF7A8
:10218000A9FF0000C0500020EFF30880EFF30981A1
:1021900001B5724600F0B8F901BD00BF70B5054643
:1021A0000E46144645212D4803F0AFFC2C4B9B6A8C
:1021B00013F4805F23D12A4B9B6A13F4006F23D161
:1021C000274B9B6A13F4007F23D1254B9B6A13F4A2
:1021D000806F34D1224B9B6A13F4807F34D1204B23
:1021E0009B6A13F4005F34D11D4A936A43F47F4322
:1021F0009362284604F0F8F92070002070BD452154
:10220000184803F082FCD6E74521174803F07DFC0F
:10221000D6E74521154803F078FC114B9A6B9B6A71
:1022200013F4004FD1D04521114803F06EFC002E6D
:10223000CBD00B4A936A23F400439362C5E7452150
:102240000C4803F062FCC5E745210B4803F05DFC38
:10225000CAE74521094803F058FCC5E7E0900000B3
:1022600000ED00E0FC900000149100002C910000B3
:102270004C9100006891000088910000A891000036
:1022800008B54521234803F040FC234B9B6A13F01B
:10229000007F21D1204B9B6A13F0807F21D11E4B00
:1022A0009B6A13F4002F21D11B4B9B6A13F4802FE0
:1022B00021D1194B9B6A13F4003F21D1164B9B6A25
:1022C00013F4803F21D1144A936A6FEA03436FEA03
:1022D00013439362002008BD4521104803F015FC0C
:1022E000D8E745210E4803F010FCD8E745210D48FA
:1022F00003F00BFCD8E745210B4803F006FCD8E7B8
:1023000045210A4803F001FCD8E74521084803F0BD
:10231000FCFBD8E7DC91000000ED00E0FC91000040
:102320001492000034920000589200008492000041
:10233000A492000008B54521014803F0E6FB08BD62
:10234000D492000008B50F2907DC054AA1F110035B
:102350004521044803F0D9FB08BD034AF6E700BF56
:102360002C9300004493000010930000F8B505463C
:102370000C4616464521384803F0C7FB374B9B6A8D
:1023800013F0100F2FD1354B9B6A13F0080F2FD18C
:10239000324B9B6A13F0020F2FD16FF015072F4BB2
:1023A0009B6A13F0010F42D12C4B9B6A13F0200F54
:1023B00042D12A4B9B6A13F0100F04D1274B9C6A21
:1023C00014F0020404D0254B5C6814F4006438D186
:1023D00022498B6A43F0FF038B62284604F004F91C
:1023E00030702046F8BD45211D4803F08EFBCAE73A
:1023F00045211C4803F089FBCAE745211A4803F030
:1024000084FB164B5F6B9B6A13F0800F02D16FF059
:102410001507C4E73A464521144803F076FB002C23
:10242000BDD00E4A936A23F080039362B7E745213B
:102430000F4803F06AFBB7E745210E4803F065FB40
:10244000B7E729463846FFF7C9FD04460028BFD044
:1024500080F309880224BBE75C93000000ED00E0F4
:102460007893000014910000B0930000D093000016
:10247000EC930000A891000070B506460C4645217B
:102480001A4803F042FB00232370194BDD6A15F054
:10249000020505D1164BD86A10F0804006D170BDF8
:1024A0004521144803F031FB0020F8E7452112488C
:1024B00003F02BFB114B1B7843B9114B1B785BB915
:1024C000104B1B889BB26BB92846E8E722460121D6
:1024D0003046FFF74BFFE2E7224601213046FFF787
:1024E0005DFEDCE73046FFF7CBFED8E71094000036
:1024F00000ED00E02C9400005494000028ED00E072
:1025000029ED00E02AED00E070B58AB0254B5D684A
:10251000C5F30805002383F31188BFF36F8F02F022
:102520007F43B3F17F4F1ED102F00C03082B10D074
:1025300012F0080F14D00C4600260DF12702294690
:10254000204604F053F805469DF8273073B10AB0D1
:1025500070BD4521144803F0D8FA00263446ECE754
:1025600004460126E9E700263446E6E72022214614
:1025700001A804F0B8F84EB1089BC3F308025AB999
:102580006FEA53236FEA4323089305E0089B23F483
:10259000FF7323F00103089301A9284604F00CF807
:1025A000D5E700BF00ED00E078940000024A5369CF
:1025B00043F010035361704700ED00E0704700BF27
:1025C000002206E002F00F01094B0B44202119768E
:1025D00001322F2A0ADC53B2002BF3DB03F16043F4
:1025E00003F56143202183F80013F1E7704700BF32
:1025F000FCEC00E008B50E4B9B6883420CD002F067
:1026000089FA4FF02003EFF3118083F31188BFF3B1
:102610006F8F05F08CFF08BDEFF305832BB1054AE2
:10262000536843F080535360E9E702F0FDFB00BFBD
:102630005C28002000ED00E008B5034B034A0221AE
:10264000034804F027F808BD000002200000002025
:10265000AC94000008B5836E203B0548036020233E
:102660004360044B8360012104F018F808BD00BFEB
:102670006C27002000000B15064A90600B6823F0C1
:102680001F03034343F01003D3608B6843F001033F
:102690001361704790ED00E010B50446072803D899
:1026A000FFF7EAFF204610BD02464521024803F02D
:1026B0002CFA6FF01500F6E7C49400002DE9F843FA
:1026C00080460F4699461646002509E02146F0B29D
:1026D00003F0C1FF064610F1160F19D0013601357F
:1026E000BD4215DA05EB450408EB84046268002A54
:1026F000F5D0B9F1000FE9D0204603F09BFF002888
:10270000E4D12A464521044803F0FFF96FF015068D
:102710003046BDE8F88300BFF094000010B5034CCC
:1027200001232278FFF7CAFF207010BD90280020F7
:1027300008B50023084A1278FFF7C0FF10F1160F02
:1027400008D00346072B05DC044A93600021116181
:102750000133F7E708BD00BF9028002090ED00E0AE
:10276000034B05225A60BFF34F8FBFF36F8F704743
:1027700090ED00E0BFF35F8F014B00225A6070477D
:1027800090ED00E038B50E4B1D68082D15D8FFF709
:10279000F1FF0024A5420AD9094B596804EB440211
:1027A000930019442046FFF767FF0134F2E7054B19
:1027B0001D70FFF7D5FF002038BD4FF0FF30FBE75D
:1027C00028950000902800204FF02002EFF311839D
:1027D00082F31188BFF36F8F044A0121C2F84015BC
:1027E00083F31188BFF36F8F0020704700E0014032
:1027F00030B108B58001034B43F00103984708BD91
:10280000704700BF708A0000F0B443685F68374BC0
:102810001340374CA34227D012D8062B26D004D918
:10282000B3F5801F09D1012416E00BB3022B01D1AF
:10283000042411E06FF0150046E06FF0150043E04E
:102840002C4CA34216D0B3F5A00F01D1032403E012
:10285000B3F5800F46D1022412F0100F0CD112F004
:10286000200F33D0012508E00724F5E70624F3E71D
:102870000024F1E70524EFE70325C2F3402312F417
:10288000807F0CBF0126002612F4007F06D012F4D0
:10289000006F1DD001228A40C7F808254268127ACD
:1028A00001F01F0141EA42125209012A18D04FF0EB
:1028B000A04243EA460343EA850343EA042301F5C1
:1028C000E07142F821300020F0BC70470025D4E7C9
:1028D00012F4806FE2D001228A40C7F80C25DDE7B0
:1028E000054AE6E76FF01500EEE700BF0600F000CE
:1028F000060010000200400000030050F0B4C5685C
:102900004668E9686A69AB69134321EA0301012358
:10291000002011E04FF0020C1DE0144F04F5E074AC
:1029200057F8242022F4403242EA0C4247F824208F
:1029300021EA030101305B00A9B10B42FAD0347ADD
:1029400000F01F0242EA44122C69C44014F0010F47
:10295000E0D14FF0030C02F01F045209012ADCD031
:102960004FF0A047DAE7F0BC704700BF000300500B
:10297000F0B4C3684768D9685A699869024321EA84
:1029800002017A68D2F810251869504021EA000047
:10299000012200250CE00E4E03F5E07356F82340AB
:1029A00024F4403446F8234021EA02010135520064
:1029B00061B11142FAD03C7A05F01F0343EA441496
:1029C0006409012CE7D04FF0A046E5E7F0BC704762
:1029D0000003005010B5144BD3F80443E4B20023B5
:1029E00000E00133072B1DD803F5A2720E4951F800
:1029F0002220C2F305229042F3D124FA03F212F00E
:102A0000010FEED00A4603F5A27051F8201021F014
:102A1000010142F8201001219940C2F80813D8B2F0
:102A200000F034FD10BD00BF0060004070B582B002
:102A300004460D460DF1070000F044FD1C4B984282
:102A400032D19DF8073003F140029200194E03F590
:102A5000A27356F8231021F44F3121F4407146F847
:102A6000231056F82310240204F47C542D0405F49A
:102A700040352C430C4346F8234002F1804303F5D4
:102A8000C043002018601B689DF8071001F5A27371
:102A900056F8232042F0010246F8232001238B4000
:102AA000C6F8043302B070BD6FF01200FAE700BF41
:102AB0000000AD0B0060004070B50D46C66843686D
:102AC0001B7A01F01F0444EA43142046FFF782FFFB
:102AD00004F01F006309012B20D04FF0A04200F545
:102AE000E07152F8213023F4403342F82130F3688A
:102AF000EB4013F0010F2FD07369EB4013F0010F7F
:102B000015D0B369EB4013F0010F09D1316921FAF7
:102B100005F515F0010F08D0012102E00F4ADEE7AC
:102B200003212046FFF782FF17E00221F9E7316910
:102B300021FA05F515F0010F0CD1032100F5E07025
:102B400052F8203023F4403343EA014342F8203066
:102B5000002002E00221F1E7002070BD00030050D8
:102B6000F8B5C46845682E7A01F01F0545EA461598
:102B7000B2F5A03F25D0B2F5005F35D0E56801265B
:102B80008E403543E560B2F5A03F33D06269012540
:102B90008D4022EA05026261B3F5C02F2FD0A269F1
:102BA00001258D4022EA0502A261B3F5802F2BD0CA
:102BB000236901228A4023EA02032361FFF77CFF95
:102BC000F8BD05F01F066D09012D0BD04FF0A04791
:102BD00006F5E07557F8255015F0010FCBD06FF0D2
:102BE0002200EDE70B4FF3E7E56801268E4025EA6A
:102BF0000605C7E7626901258D402A43CBE7A26934
:102C000001258D402A43CFE7236901228A401343DF
:102C1000D3E700BF0003005008B50B4B1B780BB186
:102C2000002008BD084B01221A7000220521062051
:102C3000FFF7BEF90620FFF79DF9044B4FF0004265
:102C4000C3F80423ECE700BF912800200060004097
:102C500070B582B0002300930193454B1C680CB9FA
:102C600000210FE0434D2846FFF782FE009005F15A
:102C70001000FFF77DFE01903D4B00221A601B689B
:102C8000EEE7013107292DD801F140039B009AB2EC
:102C900001238B403848D0F804030342F1D002F1FD
:102CA000804303F5C0431B68002BEAD001F5A273F3
:102CB000314850F82300C0F34033C0F3042001250D
:102CC00005FA00F002AD05EB830353F8085C0543F9
:102CD00043F8085C02F1804303F5C04300221A6008
:102CE0001B68CEE7009E2EB9019EEEB9002C35D1AF
:102CF00002B070BD214B596819B10D4649B10D683C
:102D000007E00D4605E06DB12B4605B12B6829465D
:102D10001D460029E8D08A683240F4D04B68154837
:102D20009847F0E72B46F2E7154B596819B10D4665
:102D300049B10D6807E00D4605E06DB12B4605B1C0
:102D40002B6829461D460029D0D08A683240F4D02D
:102D50004B680C489847F0E72B46F2E7054C2046B5
:102D6000FFF7CCFD04F11000FFF7C8FDC0E700BF7E
:102D70007C61004050000020006000407827002067
:102D80009427002060000020014B01221A60704748
:102D900000C00040C3680C2910D1596A094B03FBDD
:102DA00001F1094880FB0130CB17C3EBA04313604E
:102DB000064800FB13135360002070476FF0220099
:102DC000704700BF90D0030083DE1B4340420F00DA
:102DD0002DE9704384B0C468A36A73B3382901D065
:102DE0000C292DD104F110064FF0FF384FF0FF39B8
:102DF00042464B46304601F0D7FC00250395124B66
:102E00000193032302936946A06A02F083FF4246BE
:102E10004B46204601F0DEFFA06A02F0D7FF0B4BC5
:102E2000D3F8083563620A4B01221A60304601F07C
:102E300045FD284604B0BDE870836FF00A00F9E74D
:102E40006FF02200F6E700BF892D000000C00040AF
:102E500004C0004010B5C4680020FEF79FFEA062C9
:102E60004FF0FF320021204605F059FC04F110001C
:102E700005F029FB002201210C20FFF799F80C2016
:102E8000FFF778F8024B0122C3F80423002010BD9D
:102E900000C0004008B5C068034B00221A601B68E0
:102EA00001F076FF08BD00BF00C10040034BD3F81E
:102EB000003413F0010FF9D0704700BF00E001406B
:102EC000024B0B6001231360704700BFDC2700201A
:102ED000004870474896000070B50C46154603F050
:102EE00067FD064603F060FDA04214D9002C12DBFA
:102EF000A84210D3631983420DD8B4FBF6F306FB46
:102F000013438BB9B5FBF6F306FB135363B9AE421B
:102F100013D9002007E02B4622464521094802F03C
:102F2000F4FD6FF0150070BD2B4622464521064882
:102F300002F0EBFD6FF01500F5E72946204603F09F
:102F400099FCF0E7B8950000DC95000070B50C46E0
:102F500016461D4603F028FD84420FD2002C0DDBDF
:102F600085420BD86319834208D814F0030F0ED1A1
:102F700015F0030F0BD19DB9002007E02B46224628
:102F800045210A4802F0C1FD6FF0150070BD2B46C7
:102F900022464521064802F0B8FD6FF01500F5E71E
:102FA0002A463146204603F084FCEFE7B89500003E
:102FB0000096000070B50C4616461D4603F0F4FC62
:102FC000844209D2002C07DB854205D8631983426D
:102FD00002D855B9002007E02B4622464521064875
:102FE00002F093FD6FF0150070BD2A462146304671
:102FF00003F079FB0020F7E7B895000010B503F067
:10300000DBFC034C206003F0D3FC6060002010BDAB
:10301000DC270020034B1B680D2B01D000207047DC
:103020000120704730010010034B1B680D2B01D0AD
:10303000002070470120704730010010034B1B68CF
:103040000D2B01D000207047012070473001001087
:10305000024BD3F80034002BFAD0704700E0014057
:1030600008B5034BC3F80405FFF7F2FF08BD00BF26
:1030700000E00140014B024A1A6070471400002032
:103080000090D00338B5FFF7C5FF40B14FF0804343
:103090000022C3F80C21C3F81021C3F83825FFF72C
:1030A000C3FF002846D04FF08052D2F80414404BA2
:1030B000C3F82015D2F80814C3F82415D2F80C145C
:1030C000C3F82815D2F81014C3F82C15D2F814142C
:1030D000C3F83015D2F81814C3F83415D2F81C14FC
:1030E000C3F84015D2F82014C3F84415D2F82414BC
:1030F000C3F84815D2F82814C3F84C15D2F82C148C
:10310000C3F85015D2F83014C3F85415D2F834145B
:10311000C3F86015D2F83814C3F86415D2F83C141B
:10312000C3F86815D2F84014C3F86C15D2F84424DB
:10313000C3F87025FFF782FF60B14FF08043D3F8EA
:10314000003413F0010F05D04FF080436FF00102FF
:10315000C3F800244FF01023D3F80032002B08DB13
:103160004FF01023D3F80432002B02DBFFF782FF6D
:1031700038BD0120FFF774FF4FF010241225C4F86A
:103180000052FFF765FFC4F80452FFF761FF00200B
:10319000FFF766FFBFF34F8F0649CA6802F4E0628B
:1031A000054B1343CB60BFF34F8F00BFFDE700BF5C
:1031B00000C0004000ED00E00400FA05064B1B795A
:1031C0003BB9054B00225A71186001221A7103485D
:1031D00070470348704700BFE42700200000AD0B94
:1031E0000C00AD0B10B101280DD070470B4B002225
:1031F0001A601B684FF080430222C3F8042308338F
:1032000001221A607047064B00221A601B684FF0BB
:1032100080430122C3F804231A6070470401004070
:103220000001004030B583B0044618B1012813D026
:1032300003B030BD4FF080430222C3F8082303F5EA
:10324000827300221A601B68374B01221A60012C1E
:103250000FD042F2107553E001234FF08042C2F8C4
:10326000083302F580720021116012682F4A136042
:10327000EDE701238DF8073042F2107518E04FF0AA
:103280008042D2F8183403F00303CDF80730D2F8A7
:10329000183413F4803F20D10023002BC8D09DF8B0
:1032A0000730012BC4D1012003F03BFB013DBFD00F
:1032B000002CE4D0012C01D00023EEE74FF0804237
:1032C000D2F80C3403F001038DF80730D2F80C3437
:1032D00013F4803F03D10023DFE70123DDE701235F
:1032E000DBE74FF08043D3F8183413F4803F16D156
:1032F0000023002B9CD0012003F013FB013D97D04D
:10330000002CEED0012C01D00023F2E74FF08043D7
:10331000D3F80C3413F4803F03D10023E9E70123F1
:10332000E7E70123E5E700BF0C0000400400004090
:103330004FF08042D2F80C3403F00103D2F80C2491
:1033400012F4803F04D1002202B31BB91248704727
:103350000122F9E74FF08043D3F8183413F4803F8B
:1033600000D10022A2B10D4B5B799BB90C4B00221E
:103370001A601B684FF080430822C3F8042301231E
:10338000064A5371074A136007487047024870475E
:1033900001487047054870470500AD0BE427002041
:1033A0000C010040100000400000AD0B0B00AD0B05
:1033B00008B5204B1B685BB11E4B002018601B68D2
:1033C0004FF080430122C3F808231B4B1B6898472A
:1033D0001A4B1B6863B1194B00221A601B684FF02F
:1033E00080430222C3F80823134B1B68012098472F
:1033F000134B1B6863B1124B00221A601B684FF01D
:1034000080431022C3F808230B4B1B680220984707
:103410000C4B1B686BB10B4B00221A601B684FF002
:1034200080430821C3F80813034B5A711B6803201B
:10343000984708BD00010040E42700200401004037
:10344000100100400C010040044B9A6D01238340A1
:103450001A4214BF01200020704700BFEC27002053
:10346000012303FA00F0024A936D0343936570470A
:10347000EC270020012303FA00F0034A936D23EAAE
:1034800000039365704700BFEC27002038B5044661
:1034900003F059FA08B9094838BD4FF02003EFF39B
:1034A000118583F31188BFF36F8F2046FFF7E2FF8A
:1034B00085F31188BFF36F8F0148EDE70400AD0B72
:1034C0000000AD0B2DE9F84380460024FF25174F7F
:1034D00013E02046FFF7C4FF88F80040144F86F33E
:1034E0001188BFF36F8F124B9F421BD0012303FA49
:1034F00009F325EA03050134E4B29DB14FF020033E
:10350000EFF3118683F31188BFF36F8FA14625FA7D
:1035100004F313F0010FE2D02046FFF795FF0028D7
:10352000DDD1D6E73846BDE8F88300BF0200AD0B19
:103530000000AD0B024B0022C3F80425704700BF0A
:1035400000E00140024B0122C3F80425704700BF90
:1035500000E00140024B0222C3F80425704700BF7F
:1035600000E00140044BD3F8003413F0010FF9D010
:103570000160BFF35F8F704700E0014010B5044663
:1035800003F0FAF908B9084810BDFFF7E3FF074B4D
:10359000C3F80845054BD3F8003413F0010FF9D0F8
:1035A000FFF7C8FF0248EFE70A00AD0B00E001405B
:1035B0000000AD0B0268124B9A4215D1C269A3F10B
:1035C0001023A3F1EF139A4210D18368012B0FD877
:1035D000C36813B1026993420CD0436963B1826935
:1035E00093420BD0002070470120704701207047A4
:1035F000012070470120704700207047012070476C
:1036000055AA00FF70B5114B9D68B5B12846FFF76C
:10361000D1FF064698B9EB6813B10126304670BD5C
:103620002C69002CFAD02046FFF7C4FF48B9E368A4
:10363000AB4208D125462469F3E70126EEE70126CF
:10364000ECE70126EAE70126E8E700BF482800206A
:10365000002800F0928038B50546484B1B68002BC7
:103660006CD0464A9268002A68D0834204D8434A04
:1036700052681344834203D8414B1B68012098478A
:10368000A5F120042046FFF795FF18B13C4B1B68BD
:103690000120984755F8183C012B03D0384B1B6884
:1036A00001209847002345F8183C55F8143CCBB14D
:1036B0009A68002A43D155F81C2C59680A442032D4
:1036C0005A6055F8143C55F8102C1A6155F8145CE2
:1036D0002B6903B1DD6020220021204603F027F88A
:1036E00023462C4625691DB3AA680ABB6B6862682D
:1036F0001344203363602B69236163690BB323B3E5
:10370000A2699A61A3690BB162695A616B696361CD
:10371000AA69A261EBB19C61A36903B15C612369F1
:1037200003B1DC6020220021284603F000F82B467C
:1037300093B1124B1B6913F0020F15D138BD002352
:10374000D0E7A269002ADAD1E0E7A2690B4BDA6080
:10375000D8E70A4BDC60DFE7084BDB68A36103B105
:103760005C61064BDC60E4E7FFF74CFF0028E5D026
:10377000034B1B6801209847E0E77047482800206A
:103780001C00002070B54F4BDC681D68002D5AD01E
:103790009D68002D57D001FB00F6002800F08880BE
:1037A000002900F08780B6FBF0F0884240F084806A
:1037B00016F1040F00F2828016F0030F08D026F0F5
:1037C0000305043534B16368AB4203D2A469F9E759
:1037D0003546F7E7002C73D0A3681BB13A4B1B6842
:1037E000012098476268521B232A2ED905F1200137
:1037F0006318203A5A6000229A60DC6022691A61DC
:10380000324860503249D96102B1D36062695A616D
:10381000A1699961002A3FD093619A6902B153610D
:103820000122A2606560236100236361A361254BCF
:103830001B6913F0010F32D104F12005324600213B
:10384000284602F074FF284670BD0123A360636917
:10385000ABB1A2699A61A3690BB162695A61002395
:103860006361A361174B1B6913F0010F0BD104F1C6
:10387000200532460021284602F059FFE3E7A269FD
:10388000104BDA60E7E7FFF7BDFE0028EFD00E4BE4
:103890001B6801209847EAE70A4AD360BDE7FFF7B3
:1038A000B1FE0028C8D0084B1B6801209847C3E729
:1038B0000025C8E70025C6E70025C4E70025C2E7C4
:1038C0002546C0E7482800201C00002055AA00FF1C
:1038D000669911EE38B505460C46142200211348AE
:1038E00002F025FF1249134800F038F8232C1CD9A8
:1038F00015F0030304D01C44043CC3F104031D442D
:1039000022460021284602F012FF084B1D605C6031
:103910009D60203C6C609A68074911609A68A1F12B
:103920001021A1F1EF11D161DA6038BD48280020E3
:10393000513600008537000055AA00FF08B5024B3C
:103940001B68984708BD00BF1800002008B5024B4F
:103950001B68984708BD00BF20000020024B18607C
:10396000024B196000207047180000202000002042
:1039700031B108B50A46034B1B680021984708BDC2
:10398000704700BF24000020F8B504460D46476884
:1039900000F10806304603F00CFC874251D1636801
:1039A000B3F5807F4FD80021304603F085FD002815
:1039B0002ADD0021304603F0D4FB28B3CDB104F159
:1039C0002C060021304603F077FD00281EDD002183
:1039D000304603F0C6FBC8B104F13806002130467A
:1039E00003F06AFD002811DD0021304603F0B9FB29
:1039F00060B1002104F1140003F05EFD002824DD15
:103A000035B9ADB92846F8BD124DFBE7114DF9E7C0
:103A1000002104F1440003F04FFD002806DD0021E1
:103A200004F1500003F048FD0028EADC094DE9E705
:103A3000002104F15C0003F03FFD002807DD0025B4
:103A4000E0E7044DDEE7034DDCE7024DDAE7014D28
:103A5000D8E700BF80BFFFFF70B5044600221146C3
:103A6000FFF792FFE0B9064604F10805284603F087
:103A700089FB7F2816D914340021204603F071FBFE
:103A800060B1204603F07EFB012807D92946204675
:103A900003F0CAFC002801DA304670BD024EFBE795
:103AA000014EF9E7004EF7E700BEFFFFF0B587B023
:103AB00004460D46164600221146FFF765FF98BBE7
:103AC00003A803F0BDFA6268294603A803F077FB58
:103AD000054630B103A803F0B9FA15BB284607B074
:103AE000F0BD04F10805294603A803F09DFC002859
:103AF00002DB6FF00305EDE7676804F168030093EC
:103B00002B4604F1140203A9084604F04AF80546BE
:103B10000028DFD13A46314603A803F07FFB054673
:103B2000D8E7A5F58545D9E7004DD7E780BFFFFF6A
:103B30000023036043600B46B9B9194A8260194AF1
:103B4000C260194A0261194A4261194A8261194ADE
:103B5000C261194A026202F17452A2F52302A2F66E
:103B600092424262836600207047144A8260144A7F
:103B7000C26002F1794202F5740202F5016202614B
:103B8000104A4261104A826102F1D14202F5C0122C
:103B900002F51E62C2610D4A02620D4A4262E1E70D
:103BA00067E6096A85AE67BB72F36E3C3AF54FA5CE
:103BB0007F520E518C68059BABD9831FD89E05C1DF
:103BC00007D57C3639590EF7310BC0FFA78FF96442
:103BD000A44FFABE2DE9F04FD7B00B900023044656
:103BE00008E09A1C54F8220003F142020CAD45F89B
:103BF00022000133072BF4D900220F2A12D811F822
:103C0000224001EB820043781B0443EA046384787A
:103C100043EA0423C0780343901C0CAC44F82030E2
:103C20000132EAE74FF0000C5EE1559B52984FEAF3
:103C3000F02282EAB01282EA70621A445499DDF8E6
:103C40004CA181EA0A0303404B401A44E74F57F85E
:103C50002C301A440CF102090CAB53F829301A44E9
:103C60004E9D4FEA753383EAB50383EAB5534F9E01
:103C700005EA0604509F45EA060E019707EA0E0E74
:103C800044EA0E042344519C14441A444FEAF4239A
:103C900083EAB41383EA7463194480EA0A03234075
:103CA0008AEA030319440CF10103D04F57F823307B
:103CB00019440CF103080CAB53F8283019444FEAAF
:103CC000723383EAB20383EAB25305EA020E45EA8D
:103CD000020B06EA0B0B4EEA0B0E7344019F07EB37
:103CE000010E19444FEAFE2383EABE1383EA7E6382
:103CF0009A4480EA04030EEA030343409A44BB4F0C
:103D000057F8293053440CF104090DF1300A5AF8E0
:103D100029904B444FEA713989EAB10989EAB159CE
:103D200002EA010A42EA010B05EA0B0B4AEA0B0A16
:103D3000D1441E444B444FEAF62989EAB61989EA70
:103D40007669484484EA0E0906EA090984EA090901
:103D5000484457F8288080440CF105090CA850F815
:103D6000290040444FEA733888EAB30888EAB35818
:103D700001EA030A41EA030B02EA0B0B4AEA0B0AC7
:103D8000D044054440444FEAF52A8AEAB51A8AEA43
:103D9000756A54448EEA060A05EA0A0A8EEA0A0A95
:103DA00054440CF1040857F828A0A2440CF106086A
:103DB0000CAC54F8284054444FEA703A8AEAB00AEE
:103DC0008AEAB05703EA000A43EA000B01EA0B0B48
:103DD0004AEA0B0ABA4422445592544451944FEA99
:103DE000F22A8AEAB21A8AEA726AD64486EA050A8E
:103DF00002EA0A0A86EA0A0AD6447C4F57F8299052
:103E0000CE440CF107090CAF57F82970BE444FEAB5
:103E1000743A8AEAB40A8AEAB45A00EA040740EA21
:103E2000040B03EA0B0B47EA0B0BD34401EB0E0A1E
:103E3000CDF850A10EEB0B0150914FEAFA2E8EEA0D
:103E4000BA1E8EEA7A6E764485EA020E0AEA0E0EF1
:103E500085EA0E0E7644654F57F828E076440CF15B
:103E600008080CAF57F828703E444FEA713E8EEABE
:103E7000B10E8EEAB15704EA010E44EA010B00EAE2
:103E80000B0B4EEA0B0EBE443344539376444F96CD
:103E90004FEAF32E8EEAB31E8EEA736E754482EA01
:103EA0000A0A03EA0A035A402A44504B53F82930BD
:103EB00013440CF1090C0CAA52F82C2013440C9357
:103EC0004FEA763282EAB60282EAB65201EA060583
:103ED00041EA060E04EA0E042C4314440D941844DF
:103EE00052901C444E94C446BCF10F0F7FF69DAE19
:103EF0004FF0100EBEF13F0F00F26982559D529AAD
:103F00004FEAF22B8BEAB21B8BEA726B5D44549B37
:103F1000539F83EA070B02EA0B0B83EA0B0BAB44BC
:103F2000DFF8C8A05AF82E50AB44AEF1020102915E
:103F30000CA951F82E504FEAF54181EA754181EA0A
:103F40009521AEF107000490AEF105000CAC54F8D9
:103F500020502944AEF10D0C54F82C004FEAB04526
:103F600085EAF01585EAD0052944AEF10E0054F833
:103F700020500D440EF10201039144F821505D449C
:103F80004E994FEA713B8BEAB10B8BEAB1544F9ECD
:103F90004E9806EA0009DDF8408130464E9941EA24
:103FA000060B08EA0B0B49EA0B0BA3445199294471
:103FB000AB444FEAF12686EAB11686EA71661E44E2
:103FC00082EA07030B407B401E440EF101045AF8BD
:103FD00024301E440EF1FF35079506940CAB53F8C0
:103FE00024304FEAF34484EA734401E05096000021
:103FF00084EA9324AEF10609CDF82090AEF10403D3
:104000000CAD55F823301C44AEF10C0955F829507D
:104010004FEAB54383EAF51383EAD50323440CAC96
:1040200054F82C4023440EF1030409940CAD45F8D8
:1040300024301E444FEA7B3C8CEABB0C8CEABB5C10
:104040004E9B03EA0B0443EA0B0305900340234312
:10405000634408EB060C334401934FEAFC2484EAE2
:10406000BC1484EA7C64274482EA01040CEA040458
:1040700054402744039B5AF823403C440CA850F872
:1040800023704FEAF74888EA774888EA9728AEF124
:10409000030650F82670B844AEF10B0650F82670AF
:1040A0003D464FEAB74080EAF71787EAD50747440D
:1040B0000CA850F8298047449D1C0A9540F82570AB
:1040C0003C44019B4FEA733888EAB30888EAB35846
:1040D0000BEA03074BEA03094E9B03EA090947EA87
:1040E0000907B844059D2F19A04440464FEAF7241C
:1040F00084EAB71484EA776402EB040881EA0C02CC
:104100003A404A4008EB0204099D5AF8252022440F
:104110000CAB53F825404FEAF44585EA744585EA2F
:104120009425029B98460CAB53F828402544AEF1E9
:104130000A0953F829804FEAB84484EAF81484EA5B
:10414000D8042C4453F826502C440EF1050643F8AD
:10415000264022444FEA7035034685EAB00585EAD9
:10416000B0550290019800EA030440EA03080BEA04
:10417000080844EA080425444E9B98182A444FEA4C
:10418000F02585EAB01585EA706529448CEA0705B3
:1041900005408CEA05050D440EF104015AF8211082
:1041A0000D440A990CAB53F821104FEAF14484EA0C
:1041B000714484EA9124079953F821100C44AEF11C
:1041C0000901059153F821804FEAB84181EAF811BD
:1041D00081EAD801214453F8294021440EF1060810
:1041E00043F8281029444FEA723585EAB20585EA7A
:1041F000B255029B03EA020443EA0209019B03EA67
:10420000090944EA09042C440BEB010555952144A6
:1042100051914FEAF52484EAB51484EA7564A44404
:1042200087EA00042C407C40A4445AF826406444A9
:104230000CAB53F826C04FEAFC4686EA7C4686EA79
:104240009C2C53F82E606644AEF1080953F829B04F
:104250004FEABB4C8CEAFB1C8CEADB0C6644059BEA
:104260009C460CAB53F82CC066440EF1070CCDF8FD
:1042700014C00CAB43F82C6026444FEA713C8CEA26
:10428000B10C8CEAB15C02EA010442EA010B029B28
:1042900003EA0B0B44EA0B046444019B334454933C
:1042A000344450944FEAF32686EAB31686EA7366DE
:1042B0003E4480EA05071F40474037445AF82860CB
:1042C00037440CAE56F828604FEAF64C8CEA764C30
:1042D0008CEA962C069EB0460CAE56F82860B44484
:1042E000049E0DF1300858F826804FEAB84686EA59
:1042F000F81686EAD80666440DF1300C5CF829C041
:1043000066440EF108090DF1300C4CF82960374471
:104310004FEA743C8CEAB40C8CEAB45C01EA040603
:1043200041EA040802EA080846EA0806B444029E84
:1043300006EB070BCDF84CB10CEB07064F964FEA96
:10434000FB2888EABB1888EA7B6840446B400BEA8C
:1043500003035D402844059F5AF8275000EB0508E9
:104360000CAB53F827304FEAF34080EA734080EA01
:104370009320039B0CAD55F823301844089D0CABDB
:1043800053F825504FEAB54383EAF51383EAD50382
:104390001844049B0CAD55F8233018440EF1090E57
:1043A00045F82E0040440C904FEA763383EAB6037A
:1043B00083EAB65304EA06072643314039431944D9
:1043C0000D910244529201444E91CE4692E5002353
:1043D0000B980BE003F142020CA951F82240991C02
:1043E00050F82120224440F821200133072BF1D935
:1043F0004FF494710CA8FFF7BBFA002057B0BDE84A
:10440000F08F00BF08B51022034902F055F908B13A
:10441000022008BD0120FCE7A897000008B58168CC
:104420001023044A103901F00BFF00B908BD012028
:10443000FCE700BFA897000030B585B002A90120B5
:1044400003F0FDFF002854D16946022003F0F7FF76
:10445000002850D1002407E02B79042B29D09DF8A7
:104460000A20934225D00134022C3BD804EB4403AC
:10447000224A02EB43059DF8081012F8130003F0DE
:1044800042FF0028EFD09DF80010687803F03BFF52
:104490000028E8D0AB78042B03D09DF80B20934282
:1044A000E1D1EB78042BD7D09DF803209342DAD1E9
:1044B000D2E76B79022B07D0032B11D0042B01D04C
:1044C0000F4A02E00F4A00E00F4A49210F4801F06D
:1044D0001CFB6879831EDBB2022B08D9FF2006E0A3
:1044E0000B4AF2E749210B4801F00FFB012005B010
:1044F00030BDFF20FBE7FF20F9E700BFB8970000C1
:104500006097000074970000509700007C970000AF
:10451000589700009097000070B50646114B53F86D
:10452000205000E00835731C0E4A52F82330AB428D
:1045300017D96C682B68204698470028F2D0002CC9
:10454000F0D00949094BE41A2411600904F01F0452
:1045500051F82030012202FA04F41C4341F82040B3
:10456000E0E770BDCC9700009000002030000020F4
:10457000084BC01A0011420900F01F00064B53F807
:104580002220012303FA00F002420CBF184600204B
:10459000704700BF300000209000002038B505466D
:1045A000114C00E01034114B9C4208D02046FFF71C
:1045B000DFFF0028F6D02368AB42F3D112E00A4CAB
:1045C00000E01034094B9C420BD02046FFF7D0FF8F
:1045D0000028F6D02168284602F064F80028F0D1BF
:1045E00000E00024204638BD30000020900000206C
:1045F00004280CD8DFE800F0030D05070900064881
:104600007047064870470648704706487047064896
:1046100070470648704700BF3498000008980000B3
:104620001898000024980000E4970000F497000018
:1046300030B108B504F08EF820B1037823B108BD7D
:10464000024870470148FAE70048F8E7449800003C
:1046500010B504464521034801F057FA204603F0FF
:1046600015FF00BF4C980000F0B583B005460E461C
:104670004FF02003EFF3118783F31188BFF36F8F9F
:1046800000F080FB04462846FFF7B2FF03460022F5
:1046900000922A464521114801F037FA1EB1F3690C
:1046A000C3F30803ABB92046FFF7C2FF0346224617
:1046B00045210B4801F029FA31462846FFF7C8FF8B
:1046C00087F31188BFF36F8F2046FDF793FF03B088
:1046D000F0BD4521034801F018FAE4E760980000B6
:1046E000B89800009098000008B5044B1B7813B9E7
:1046F00001F00CFF08BDFDF7FBF8F9E79228002058
:1047000008B50348034A121A002102F010F808BD48
:10471000D00000209428002008B5094B01221A700F
:104720000220FFF7F9FE04F017F80320FFF7F4FE6C
:10473000FBF762FE034A137B23F00103137308BDEA
:1047400093280020D000002008B5144B83F308887C
:10475000134C636943F400736361E02384F82230EF
:104760000025E57725766576A576636A43F4E02330
:104770006362FDF71BFFFDF771FC4FF0FF33A3628F
:10478000E3622846FFF7C8FE0120FFF7C5FE2B466F
:104790002A4629460348FDF743FC00BFE0580020A5
:1047A00000ED00E0194700002DE9F04383B0044616
:1047B0001D464FF02003EFF3118783F31188BFF3F9
:1047C0006F8FC16899B900294FD13A4B9B6893F913
:1047D0000E3023610131E160364B9B68A36087F3A3
:1047E0001188BFF36F8F002003B0BDE8F083164639
:1047F0008268304B9B689A42E5D055EA06010CBFAF
:104800004FF001084FF0000831D092F90E90494660
:1048100093F90E0003F043FE81452FDC4FF00009B1
:104820000096019522463946234800F017FA0028E1
:10483000DAD04FF02003EFF3118583F31188BFF333
:104840006F8F23689C421FD0F3B1216993F90E004A
:1048500003F025FE0146204603F02AFEB0B9B9F167
:10486000000F15D04FF0010812E02369B1E787F37C
:104870001188BFF36F8F6FF00F00B5E70146204638
:1048800003F016FE8146CBE72169E4E74FF001080B
:10489000B8F1000F06D185F31188BFF36F8F6FF069
:1048A0000A00A1E72946044800F056F86FF00A0014
:1048B0009AE700BF5C2800205C28002038B5836898
:1048C00083B304461A4A926893422ED1C368012BDF
:1048D00005D0013BC36003F038FE002038BD4FF027
:1048E0002003EFF3118583F31188BFF36F8F016904
:1048F00003F0DEFD204603F0E7FEA06058B190F91A
:104900000E3023610023C36703F027FE29460948C0
:1049100000F022F8DFE70023E36085F31188BFF39E
:104920006F8FD8E76FF01500D8E74FF0FF30D5E76D
:104930005C2800205C28002038B5B3F1FF3F08BF99
:10494000B2F1FF3F00D138BD0249183000F0BCFA87
:10495000F9E700BF87850000084681B908B5EFF385
:1049600005833BB9084B5A6A9B689A4202D0FDF70F
:10497000ADFA03E080F31188BFF36F8F08BD81F3B8
:104980001188BFF36F8F70475C2800200A4B834269
:1049900008D04A680B6813604A685A6000230B60AD
:1049A0004B607047283B9B688B42F2D14B7B13F0E6
:1049B0001F0FEED0F5E700BF8428002038B504466D
:1049C000124B1B696BB1114BD868E4B90F4B9B6854
:1049D0005A7B12F01F0F16D18269A2B90B4A53629B
:1049E00013E00A4D05F1280003F0B0FDAA68537BDF
:1049F00013F0200F02D043F0080353730028E4D1D2
:104A0000024BD868E1E7014B586238BD5C280020B2
:104A100038B5427B90F90D30002B2DDB044612F0A7
:104A20001F0F05D183690BB1002302E0012300E0D1
:104A300000230BB3154B53F8285F9D4224D065B17A
:104A40002946204603F04AFDB8B935B10F4BDB6A61
:104A50009D4202D02D68002DF1D10C4B03F12802AC
:104A60002260DA6A62601460DC62637B63F07F0359
:104A700063730020FFF7A2FF38BD6B686360256099
:104A80006B681C606C60F0E70025D8E75C280020AC
:104A900038B50446183003F096FE00234FF020028C
:104AA000EFF3118582F31188BFF36F8F10E0637B02
:104AB00043F010036373154B9868A04214BF0020A5
:104AC0000120FFF77BFF85F31188BFF36F8F012370
:104AD00063B994F90D30002BE9DA21460C48FFF751
:104AE00055FF637B03F07F036373E0E7074B9B682D
:104AF000A34200D038BD4FF02003EFF3118083F3C1
:104B00001188BFF36F8F03F012FDF3E75C280020DC
:104B1000842800204FF02003EFF3118283F31188E3
:104B2000BFF36F8F437B13F0280F04D082F31188FB
:104B3000BFF36F8F704770B5054643F02003437392
:104B400082F31188BFF36F8F183003F03CFE00230F
:104B50004FF02002EFF3118682F31188BFF36F8FBD
:104B600019463FE0012246E029462C48FFF70EFF98
:104B70006B7B03F07F036B7343E013F0020F20D0D5
:104B8000284603F0A7FC2946FFF700FF6B7B23F0C4
:104B900002036B730023AB6013E004F1180003F011
:104BA00012FE204603F096FC2146FFF7EFFE637BE2
:104BB00023F0020363730023A360E3672046FFF73B
:104BC00027FF05F130032C6BA34201D0002CE4D168
:104BD0006B7B43F008036B73296E86F31188BFF378
:104BE0006F8F01231A46ABB96B7B13F01F0F02D1F5
:104BF000A9690029B6D012F0010FBED013F0800FC2
:104C0000B2D1074B9868854214BF00200120FFF7FE
:104C1000D5FED6E709B12846884770BD8428002014
:104C20005C28002010B5044690F90D30002B08DBFD
:104C3000084B9868A04214BF00200120FFF7BEFE79
:104C400010BD01460448FFF7A1FE637B03F07F031C
:104C50006373EDE75C2800208428002010B50C4623
:104C60001146DDE902230448806803F0E5FC204694
:104C7000FDF72CF910BD00BF5C2800202DE9F8439A
:104C800004460F4600234FF02002EFF3118682F313
:104C90001188BFF36F8F984608E012F0010811D118
:104CA000A77386F31188BFF36F8F01231A46002B79
:104CB00036D1637B13F01F0FEFD1A369002BECD12A
:104CC0000122EAE7184D05F1280921464846FFF779
:104CD0005DFEA773AD6A4D4520D065B129462046DB
:104CE00003F0FCFB98B935B10F4BDB6A9D4202D053
:104CF0002D68002DF1D10C4B03F128022260DA6AF5
:104D000062601460DC620120FFF758FEC9E76B683F
:104D1000636025606B681C606C60F4E70025DCE76D
:104D20004046BDE8F88300BF5C28002038B5B1F1EB
:104D3000FF3F08BFB0F1FF3F1AD003F0CDFB0446A0
:104D4000C5176901430141EAD062181A62EB0503F5
:104D50009A0042EA907281001346081945EB03035A
:104D6000DA0042EA5072C100C80B40EA424038BD46
:104D7000034B9868FFF78CFE4FF0FF30F7E700BF5A
:104D80005C280020014B9868704700BF5C28002019
:104D900038B504464FF02003EFF3118583F31188F3
:104DA000BFF36F8F03F090FC40B10022C26703F0A5
:104DB000D4FB29460648FFF7CFFD38BDA368E2685B
:104DC000934203D001221344A360F2E70022FAE7E2
:104DD0008C28002030B583B01D464FF02003EFF340
:104DE000118183F31188BFF36F8F836843B1013B57
:104DF000836081F31188BFF36F8F002003B030BD53
:104E0000144654EA050306D0CDE90045024605489C
:104E1000FFF724FFF2E781F31188BFF36F8F6FF084
:104E20000F00EBE78C28002008B54FF02003EFF3CC
:104E3000118483F31188BFF36F8F044B9868186156
:104E4000FFF726FE2046FDF741F800BF5C28002052
:104E500008B50648064A121A064901F044FC064AFB
:104E60000649074801F03FFC08BD00BF00000020D4
:104E7000D0000020DC98000000000000DC9800005A
:104E800000000020034B1868984200D070470020B3
:104E9000FCE700BF2800002030B1044A526890426D
:104EA00001D0006870470020704700BF2800002034
:104EB00008B5044B1B680BB1002008BDFCF7F0FFE0
:104EC000FBE700BF8C2800202DE9F84F804689467B
:104ED000B3F1FF3F08BFB2F1FF3F7ED0541C43F156
:104EE00000056FF001031E1B4FF0FF3A6AEB050748
:104EF000002E77F1000311DAC8F8089026462F46F5
:104F0000012C75F100031BDB00234FF02002EFF3AF
:104F1000118982F31188BFF36F8F2EE0FFF7C8FF6E
:104F20002F4BD3E90023121843EBE0731946A21864
:104F300045EB01016FF001039C1A6AEB0105DBE709
:104F400001260027E0E7B4EB0A0265EB0B030261E0
:104F500043614368C8F80430C8F800004368C3F8E8
:104F60000080C0F8048038B3FFF78CFF80452ED056
:104F700089F31188BFF36F8F012373BBFFF798FF8D
:104F8000321847EBE073C8E90423FFF77BFF0028E2
:104F9000E9D0D0E90445D8E904ABA2457BEB050391
:104FA000D1DBBAEB04026BEB0503C8F81020C8F89C
:104FB0001430FFF771FFEAE70A4BC8F800305A686F
:104FC000C8F80420C2F80080C3F80480CCE703F0DE
:104FD000DCFB0021FCF734FFCAE7BDE8F88F00BF17
:104FE0005001002028000020F8B54FF02003EFF317
:104FF000118583F31188BFF36F8F284B1860FFF77B
:1050000041FF044650B3D0E90467244B1B68D9170D
:10501000B34271EB070221DB214AD2E9000180197A
:1050200041EBE671C2E900019B1B1C4A13600022A0
:105030000023C4E90423204603F08FFB85F3118885
:10504000BFF36F8FA368204698474FF02003EFF31C
:10505000118583F31188BFF36F8FD0E744B10F4BF5
:105060001968D4E90423521A63EBE173C4E90423F9
:105070000B480A490C68D0E90023121943EBE4738A
:10508000C0E9002300240C6003F07FFB2146FCF7FD
:10509000D7FE85F31188BFF36F8FF8BD8C280020F1
:1050A0005001002010B50446D0E90A2352EA03015A
:1050B00005D0B3F1FF3F08BFB2F1FF3F15D1236B1D
:1050C00001332363236A0BB12046984704F1180388
:1050D000A469A34208D03CB1204603F009FA204657
:1050E00003F03BFA0023E36710BD0249FFF7ECFE33
:1050F000E5E700BFA55000002DE9F04F87B014464A
:105100001D46DDE91089B3F1FF3F08BFB2F1FF3F53
:105110002FD0064613462A4658EA09010FD06FF0F1
:105120000100B0EB080000904FF0FF3161EB090087
:105130000190DDE90001002871F100011CDB6FF036
:105140000101B1EB030A4FF0FF3161EB020BBAF141
:10515000000F7BF1000123DB304603F034FBC6E98E
:105160000A890023336322462B4617493046FFF74E
:10517000ABFE07B0BDE8F08F18F1FF31049149F1A3
:10518000FF310591DDE9047838464146012F78F179
:10519000000702DB80468946D1E701200021F9E7BC
:1051A00013F1FF33029342F1FF330393DDE9020170
:1051B00002460B46002871F1000102DB14461D4631
:1051C000CAE700221346F9E7A550000010B5064CC7
:1051D000064B9C4206D2A2686168204603F02CFB75
:1051E0001434F5E7002010BDD0000020D0000020CE
:1051F000704770B582B0044601A90079FBF75AF9EF
:10520000A568019B1D4423681C892E194FF02002BC
:10521000EFF3118382F31188BFF36F8F01F077F9F9
:105220002B5983F308887368984702B070BD19B191
:10523000012903D102207047012070476FF015004B
:1052400070472DE9F0439DB015469946249FDDF83F
:105250009480279C01A802F029FF002101A8FEF7F5
:1052600067FC14B1289B002B06DC2B89EE683344C5
:105270006E891E44002513E01A46214601A802F05B
:105280001BFFF2E723463A462946484600F0B9FF9D
:10529000034688B92246394601A802F00DFF25448D
:1052A000B54204D2741B4445ECD94446EAE726993A
:1052B00001A802F044FF002318461DB0BDE8F083AA
:1052C0002DE9F04383B000284AD00C461746994692
:1052D0000646002947D0002A48D00D89CB681D44D6
:1052E00004230DEB03022946384600F08AFF80466E
:1052F00000283ED1BDF8042046F608139A421ED07D
:105300006389002B3BD1BDF8042046F607139A426F
:1053100038D134607760A6F808909DF82830B372D1
:1053200063892B44F36063892B44BDF80620134442
:10533000736104353561404603B0BDE8F08363898D
:10534000BDF806108B4217D104230DEB030229444C
:10535000384600F056FF0028D5D04FF0FF38EAE776
:105360004FF0FF38E7E74FF0FF38E4E74FF0FF3842
:10537000E1E74FF0FF38DEE74FF0FF38DBE74FF0B3
:10538000FF38D8E74FF0FF38D5E700284DD0F0B50B
:1053900083B00F4616461D4604460368002B48D0CE
:1053A00043680BBB4FF0FF313AE004230DEB0302DF
:1053B0002169606800F025FF014600283CD1A37AEE
:1053C0001BB12269E3689A4239D223894FF6FF72F2
:1053D000934217D0BDF80420934213D0BDF80600C5
:1053E00023691844043020612069636998421AD205
:1053F00023685B89002BD8D0E3688342D5D1043081
:105400002061D2E715B1BDF804302B802369043345
:105410003B60BDF8063033802269134404332361B6
:10542000084603B0F0BD0121FAE74FF0FF3108460E
:1054300070474FF0FF31F3E74FF0FF31F0E7012104
:10544000EEE72DE9F04184B004460E4615463023C0
:1054500003AA2946304601F01BFBA8BB3368039A18
:105460001344AB4233D104F108073A46294630468B
:1054700001F021FB28BB04F11408424629463046BE
:1054800001F019FBE8B9384601F093FE606033681B
:10549000AB421FD1CDF8048000220092134639465A
:1054A000204602F07EFDC0B92046FEF7D5FA05463B
:1054B000B0B9384601F07DFE6060284604B0BDE812
:1054C000F0816FF00205F8E74FF0FF35F5E76FF078
:1054D0000105F2E76FF00305EFE76FF00405ECE775
:1054E0006FF00505E9E7F0B5A5B006460F460023C5
:1054F0000893DF2407E025462A466946304601F036
:10550000F2F82E44641B002C1DDD09A802F0CEFD2C
:10551000002109A8FEF70CFB2022394609A802F059
:10552000CBFD042208A909A802F0C6FD694609A816
:1055300002F005FE9DF8233001338DF823301F2C37
:10554000D9DD2025D8E725B0F0BD2DE9F04383B0A3
:105550000646884617461C4600F0D0FE082C20D888
:105560000546082802D94FF0FF301CE0304600F015
:10557000CEFE8146A54200D22546224639466846DF
:1055800001F0B1F82A1B49460DEB040001F0CFF8F9
:105590002B466A464146304600F052FE18B10120C3
:1055A00001E04FF0FF3003B0BDE8F08300B583B0F9
:1055B0008DF80420012301AAFFF7C7FF03B05DF8AF
:1055C00004FB08B501F078F808BD00EB4000C0010D
:1055D000704708B5FFF7F9FF303008BD0B78013B85
:1055E000DBB2012B02D84FF4C07070474FF0FF3090
:1055F000704710B5044600F081FEFFF7EAFFA3688C
:10560000181A10BD30B583B00C4601A9FBF708F994
:10561000054610B1284603B030BD019802F070FE77
:1056200004232246A0F10801019800F0EAFD054696
:10563000019800F0E5FDEDE708B581680122203909
:10564000FFF7B4FF08BD10B582B00446019102F027
:1056500057FE04230DEB0302A0F108012046FFF7DB
:1056600074FF02B010BD08B5006A00F047FE08BD27
:105670002DE9F04182B006460C4617460020FFF7A0
:10568000D6FD01A9C0B2FCF713F940B14FF00108F3
:10569000019800F0B5FD404602B0BDE8F0812C2332
:1056A00003FB04631D89DB681D4404236A46294605
:1056B000019800F0A6FD804640BB2C2101FB04644C
:1056C0006489BDF8002046F608139A420CD004BB4A
:1056D000BDF8002046F607139A421DD12544BDF8B7
:1056E00002301D443D60D3E7BDF802108C4202D069
:1056F0004FF00308CCE704236A462944019800F0E0
:1057000080FD0028E4D04FF00108C1E74FF0010808
:10571000BEE74FF00308BBE74FF00308B8E7F0B56A
:1057200083B007460C460020FFF781FD01A9C0B2F7
:10573000FCF7BEF8D0B90646019800F0E8FD054632
:10574000019800F05DFD2C2101FB04710023032B67
:1057500005D8CA5C954207D10133DBB2F7E70123D4
:105760003BB1304603B0F0BD0023F9E74FF0FF3600
:10577000F7E74FF0FF36F4E710B582B0034608466E
:1057800080220192012905D002290ED11A6D03F160
:10579000540402E05A6A03F1280401A9FCF79CF8BA
:1057A00008B9019B236002B010BD0120FBE738B5AA
:1057B00004460121FFF7E0FF10B10125284638BD5E
:1057C00002212046FFF7D8FF054608B10125F5E77D
:1057D0002046FFF748FFE065F0E7F8B505460F46BD
:1057E00016460024012C10DC33462C2202FB045206
:1057F00021462846FBF76AFB034608B90134F1E766
:10580000002C03DD17B9002300E000231846F8BD83
:10581000002383718360C3600123437103600371BC
:10582000C37170474379012B01D000207047036892
:10583000012B01D0002070470379012B01D00020FB
:1058400070470120704738B50546FBF7CDF895F84D
:105850005840E31EDBB2012B0DD9022C03D0042CDF
:1058600001D0032C06D1002000F0DDF810B1FF2399
:1058700085F8583038BD002000F0E8F80028ECD05A
:10588000FF2485F85840EAE770B584B004460E4618
:1058900003A90120FCF70CF830B10124039800F0B3
:1058A000AFFC204604B070BD0398FFF7A2FE05468A
:1058B000E16D304600F0EAF82C18039800F01EFD68
:1058C0000546039800F023FD0146082201A800F0D8
:1058D0002EFF33798DF804302B4601AA2146039818
:1058E00000F0AEFC04460028D8D00124D6E708B565
:1058F00000F0D6FC08BD2DE9F04706460F46002112
:105900000846FFF794FC044601210020FFF78FFCB6
:105910003B789C4223D0984223D1012399462C22E4
:1059200002FB03639C6A013CF06DFFF752FE804668
:1059300000252C2303FB09635B6A03EBC402D2F846
:1059400004A053F834101B685246C91A3846FFF7B2
:10595000CEFF013C5544A845EBD8BDE8F0870023B5
:10596000DCE70120F9E730B583B00C4615466946FF
:10597000022002F064FDE97901290DD19DF8033080
:10598000012B0ED0A9682046FFF75DFE2046FEF7EA
:1059900045FD002003B030BD0022204602F064FD2A
:1059A000ECE7204602F0F1FCECE770B582B005466A
:1059B0000E46FBF79FFB0446F06088B302282ED109
:1059C00001A90120FBF774FF08B1012428E0324649
:1059D00029460198FBF7D6FA0446E0B9019802F08F
:1059E0008FFC014601230DF10302019800F009FC30
:1059F000044608B1012413E001220DF103010198CE
:105A000002F090FC10B101238DF803309DF80330B3
:105A100003F00F03F371019800F0F2FB00E007249C
:105A2000204602B070BD10B582B001A90120FBF77D
:105A30003FFF18B10124204602B010BD0198FFF7C6
:105A4000FBFD0446019800F0DBFBF4E710B584B0E1
:105A500003A90120FBF72CFF18B10124204604B054
:105A600010BD01A9039802F09DFC044660B99DF8A1
:105A70000730032B03D0039800F0C2FBEEE7039836
:105A800002F083FC0446F6E70124F4E730B44379DE
:105A9000012B10D0022201FB02F4012B0DD0CD010D
:105AA0000379013B0268013A02FB04F201FB032186
:105AB000481930BC70470122EDE70025F0E70246A7
:105AC00058B1436803F00303012B03D0032B07D124
:105AD000036843B10020906070476FF01500704775
